:020000021000EC
:10F00000004000206DF501004DF501004DF50100B7
:10F0100000000000000000000000000000000000F0
:10F020000000000000000000000000004DF501009D
:10F0300000000000000000004DF501004DF501004A
:10F040004DF50100394B02004DF501004DF5010071
:10F050004DF50100000000004DF501004DF50100E7
:10F060004DF501004DF501005D6702004DF5010011
:10F070004DF501004DF501004DF501004DF5010084
:10F080004DF501004DF501004DF501004DF5010074
:10F09000FD4E0200D9230200751902004DF5010052
:10F0A0004DF501004DF501000000000000000000DA
:10F0B0000000000000000000000000000000000050
:10F0C00010B5064C2378002B07D1054B002B02D03E
:10F0D000044800E000BF0123237010BD5029002028
:10F0E000000000006C410300084B10B5002B03D05A
:10F0F0000749084800E000BF07480368002B00D11B
:10F1000010BD064B002BFBD09847F9E7000000002C
:10F11000542900206C4103006C41030000000000F2
:10F1200010B5024801F0DEFB10BDC046702900207A
:10F13000A12370B500220125084CDB006560A560A5
:10F14000E250D12202239200A350403AA350044936
:10F15000112001F0F1FB256070BDC0460010014098
:10F160009509020010B5FFF7E3FF10BD384A394B8F
:10F17000D358394A934254D023D8384A934248D07E
:10F180000BD89D22120393423DD0354A93423DD085
:10F190009E22D202934255D156E0324A93423BD04E
:10F1A00006D8E120EC228001920393424ED049E040
:10F1B0002D4A934232D080221204934242D12B48EE
:10F1C00044E02B4A934234D00AD82A4A93422BD0A7
:10F1D000294A93422AD0294A934233D1E12021E09F
:10F1E000274A934228D005D88022D204934229D1BD
:10F1F00024482BE0244A934221D080225205934296
:10F2000020D1224822E0962000011FE096204001F4
:10F210001CE09620800119E0962000E0E120C0016A
:10F2200014E09620000211E0962000E0E120400268
:10F230000CE0E120800209E0E120C00206E0E120CC
:10F24000000303E0002001E09620C0007047C046A4
:10F25000002000402405000000509D0000502700C1
:10F2600000B0130000A04E0000F07500127A0000FC
:10F2700000B0AF0300903A0100E0D70100F0EB00CE
:10F2800000705F0790D00300A4DFBE0E40420F0065
:10F29000044B054AD050054B1A78012A01D101329E
:10F2A0001A7070471C050000002000406C290020E7
:10F2B0000022014BDA607047FC2000400022014B25
:10F2C0001A627047FC200040902201230749D200B7
:10F2D000885830B5184001D08B5004E004248D5874
:10F2E000254201D08C50180030BDC046002000409F
:10F2F00070B5074C200001F057FA064D280001F0C8
:10F3000053FA2A002100044801F0A6FA70BDC04655
:10F310008C290020D42900207029002070B50E4CC3
:10F320002378002B17D00D4801F080FA01230C4EF2
:10F330000025F3607360A023DB00F550022001F08C
:10F3400005FBA0220C21074BD205F358C133FF3334
:10F350009B009950257070BD6C29002070290020F9
:10F36000002000400C05000010B50100014801F02C
:10F3700097FA10BD70290020F7B504005A480778A5
:10F380000190002F00D0ADE01500A026C135FF355B
:10F390005648F605AD00A8510D00C135FF35AD004A
:10F3A000AF51534D534EAA51534AA95096221202BF
:10F3B00094425DD029DC96229201944252D00EDC18
:10F3C00096221201944248D096225201944247D08C
:10F3D0009622D200944256D19E23DB0253E096221D
:10F3E000D201944240D006DCE122920194424AD1FB
:10F3F000EC239B0347E0E122D201944236D03F4AFE
:10F40000944240D180231B043DE0E12292029442C9
:10F4100034D00DDC9622520294422BD0E1225202CB
:10F42000944229D0E122120294422CD1344B2AE09A
:10F43000E122D202944223D005DC324A944222D106
:10F440008023DB041FE0E122120394421AD02E4AEB
:10F45000944218D180235B0515E09D231B0312E025
:10F460002A4B10E02A4B0EE02A4B0CE02A4B0AE014
:10F470002A4B08E02A4B06E02A4B04E02A4B02E024
:10F480002A4B00E02A4B2B4A8421AB50A0230422B4
:10F49000DB00EA500022284B0126DA601A62C12202
:10F4A0009200AB5802200B43AB50019B23491E70C6
:10F4B00001F042FA224BAE601B782E60002B11D176
:10F4C000204A1268002A0DD096229201944209DD4A
:10F4D0001D4A5C1CD05C002803D0FFF745FF2300C9
:10F4E000F6E7FEE7F7BDC0466C29002001030000E7
:10F4F000002000400C05000014050000127A0000F6
:10F5000000F0EB0090D0030040420F0000B0130069
:10F510000050270000A04E0000F0750000509D0034
:10F5200000903A0100E0D70100B0AF0300705F0720
:10F53000A4DFBE0E24050000FC20004021F10100E4
:10F540006D290020702B002054850200044B10B55B
:10F550005B68044ADB055B0D9B58984710BDC046AD
:10F5600000ED00E004200020FEE700000E480F49F7
:10F5700070B5884202D000230D4C03E00D4B0E4ABB
:10F58000002106E0CA18A242F8D2C558043315601B
:10F59000F8E7934201D202C3FBE708F02DFA00F02E
:10F5A0000DF801F0DFF9FEE76C41030000200020B8
:10F5B00050290020502900202C340020064B1B68C5
:10F5C0001B061B0F012B06D1044A054B1A60802233
:10F5D000044B12021A607047E80F00F0DFFF07C00B
:10F5E00004050040186C0040F0B5490887B052008F
:10F5F00003928A00049200224C1C0294160004001C
:10F600008D1E01930595059B9E4223D8964211D2EB
:10F61000950045192B6827682360049B2F60E71825
:10F620007B689C46029BD518AD0045192B687B6012
:10F6300063462B60521892008218136865686360F5
:10F64000019B1560019D1A88039B0236EB180193FC
:10F650000834D8E707B0F0BD10B5C3708023184C4C
:10F660000180446082705B0099421AD007D810294B
:10F670001CD0402920D18181C181124B19E0802307
:10F68000DB00994208D080235B01994214D1012309
:10F690008381C3810C4B0CE004238381C3810B4B1A
:10F6A00007E010238381C381094B02E08381C3817A
:10F6B000084B8360002001E00120404210BDC0469D
:10F6C000FA05030078360300FA350300003603001C
:10F6D00018360300F83703000F220123013A5B00BC
:10F6E000002AFBD1002803DD013B984204DD02E043
:10F6F0005B42984200DA18007047F0B5A7B00C934F
:10F700008B0802930300023301930C9B0792DB00EA
:10F7100016930C9B0C9A9B0015930C235A4314923E
:10F72000029A019FD2000B92029A0F9092000692C9
:10F73000029A13915A43079B049009930A930893E2
:10F74000029B059203900D93039B0B9A00255D5F2E
:10F75000039BAD109B5E9B10E8180E93FFF7BCFF58
:10F7600003B210930023FC5E0B9BA410FE5EB61048
:10F77000A019FFF7B1FF03B211930E9BE81AFFF730
:10F78000ABFF0E90A01BFFF7A7FF039B069A1290FA
:10F79000985E059A039B80109B5E9B10C018FFF734
:10F7A0009BFF069B05B2F85E059B8010FB5E9B10DD
:10F7B000C018FFF791FF109B04B25A106B10D318BA
:10F7C000039A1380119B5A106310D3183B80109B2F
:10F7D000581BFFF781FF119B0600181BFFF77CFFEA
:10F7E000089B069900229B5E039A9C46525E089BEA
:10F7F000069902255D5F921003B2109260467C5E0E
:10F80000190036B270436943069A411803980914E7
:10F8100081526246754353435D1B069B2D14FD5276
:10F820000300059AA410985E109B8010181AFFF729
:10F8300053FF059B0600F85E36B28010201AFFF7D2
:10F840004BFF6B4638229B5E05B2581B0E93FFF7A9
:10F8500043FF48226B469B1800241C5F1090A019A0
:10F86000FFF73AFF0E9B11905819FFF735FF05007F
:10F87000A01BFFF731FF0A9B00B20221595E0A9BD1
:10F880002DB200229B5E04002A004C435A43584389
:10F890004D430B9EA218039C1214451BA2532D141A
:10F8A000099BBD530221595E44226B469B180024DC
:10F8B0001C5F099B402000229B5E6A4612180020B4
:10F8C000105E250002004D435A4341436343591AD9
:10F8D0000D9BAA18039D059E013B12140D932B004E
:10F8E000AA53169A043394460393159A089B091455
:10F8F000634494460893149A0A9BB953634494460C
:10F900000A93099B0437634409930D9B002B00D095
:10F910001AE70C9B9B000893029B1193029B9B0888
:10F920000593119B042B00D828E1089B089A9B00A3
:10F930001C93089BDB001D930C2353432093029BD5
:10F94000059A9B001B93059B9B000693059BDB0080
:10F9500009930C2353431293079B0E930D930C931F
:10F960000F9B0B9300230A931300013B2493069BE8
:10F97000023325930A9B249A934200D9F5E00C9B0D
:10F9800000229B5E14930C9B02229B5E15930D9BA1
:10F9900000229B5E16930D9B02229B5E17930E9B8B
:10F9A00000229B5E18930E9B02229B5E0B9A19937A
:10F9B00094461600259B634403930A9B1093179B60
:10F9C0005B422193159B5B422293199B5B422393DD
:10F9D000109B139A934200D3B1E0069A039B9B5E5F
:10F9E0001A930023F55E099BF75EE819FFF774FE92
:10F9F0000223F45E1A9B1E90E018FFF76DFE1F9025
:10FA0000E81BFFF769FE1A9B0700E01AFFF764FE88
:10FA1000099A039B1A909D5E069B3FB2F05E129B73
:10FA20007F10F35EC018FFF757FE039B0400002011
:10FA3000185E24B24019FFF74FFE78226B469B18E0
:10FA40000021595E6B4604329B1800229B5E4910D0
:10FA50005A10641003B258100B195B10338013183E
:10FA60005B107380131A069A0C1BB25E0399002573
:10FA70004D5F169817996043594341180698091429
:10FA8000315221994C4316994B430399E3181B14A7
:10FA90000B800B0009995B5E1E93129BF05E101A9F
:10FAA000FFF71AFE1E9B0400E81AFFF715FE6821F7
:10FAB0006B465B1800255D5F24B264106D10A3B225
:10FAC000ADB21A93E91A159B09B24B439C4600B29A
:10FAD0004010BAB280B21418149F24B26743099B35
:10FAE00067443F14F752229B121A5C43149B1998E7
:10FAF0005943039B6418069924145C521A9B189965
:10FB0000EB181BB212B25843514341181298091412
:10FB1000315223994A4318994B43D218039B0999B0
:10FB200012145A52029A109B94461B9A63449446AC
:10FB300010931B9BF618039B6344039348E71C9A9E
:10FB40000A9B944601330A930B9B1D9A04330B9333
:10FB50000C9B634494460C93209A0D9B63449446FB
:10FB60000D930E9B63440E9304E7089B9B00089340
:10FB7000119B9B081193059B0293CFE6029B059A6C
:10FB80009B000893059BDB000793059B9B00069356
:10FB90000C235A43002303920593029A139B9B1A4A
:10FBA0000C93059B0C9A934200D986E0079A019B1F
:10FBB0009E5E049B00255D5F049B9F5EE819FFF736
:10FBC0008BFD019B099000241C5FA019FFF784FDA9
:10FBD0000A90E81BFFF780FD0700A01BFFF77CFDE4
:10FBE000019B069A0B909E5E019B039A3FB29D5E1D
:10FBF000049B069A7F10985E039A049BBFB29B5E9B
:10FC0000C018FFF769FD04007019FFF765FD6B462A
:10FC100024229A5E24B2521064100499A4B292B2C3
:10FC200013190B806B4628215B5E00B25B104010FD
:10FC30009BB280B2019D191829800499069D069EE9
:10FC4000495F019D121BAD5F049C069E181A019B23
:10FC5000A253039A98539E5E2300985E081AFFF7FA
:10FC60003BFD0400A81BFFF737FD00B24010049ACB
:10FC7000079980B23B1853526B462C229B5E24B2EC
:10FC80005B1064109BB20199A4B2079D1A1B4A53E2
:10FC9000049A03993F1A5752029A1C199446019BE1
:10FCA000089A5C52059B634494460593049B634405
:10FCB0000493019B6344019373E727B0F0BDF0B553
:10FCC000A3B00B938B0801930300023300930B9BAB
:10FCD0000692DB0015930B9B0B9A9B0014930C234D
:10FCE0005A431392019A009FD2000A92019A0E90F1
:10FCF00092000592019A12915A43069B0390089331
:10FD000009930793019B049202900C93029B0A9A19
:10FD100000255D5F029BAD109B5E9B10E8180D9364
:10FD2000FFF7DAFC03B20F930023FC5E0A9BA410DA
:10FD3000FE5EB610A019FFF7CFFC03B210930D9B27
:10FD4000E81AFFF7C9FC0D90A01BFFF7C5FC029B4A
:10FD5000059A1190985E049A029B80109B5E9B10FE
:10FD6000C018FFF7B9FC059B05B2F85E049B801034
:10FD7000FB5E9B10C018FFF7AFFC0F9B04B25A103C
:10FD80006B10D318029A1380109B5A106310D3186B
:10FD90003B800F9B581BFFF79FFC109B0600181B16
:10FDA000FFF79AFC079B059900229B5E029A9C46EE
:10FDB000525E079B059902241C5F921003B20F92BA
:10FDC00018007D5E614636B260437143059A091A98
:10FDD000029809148152624674435343E418059B08
:10FDE0002414FC520300049AAD10985E0F9B8010FF
:10FDF000181AFFF771FC049B0400F85E24B280100F
:10FE0000281AFFF769FC6B4634255D5F03B2E818DA
:10FE10000D93FFF761FC44226B469B1800269E5F02
:10FE20000F90301BFFF758FC0D9B1090E81AFFF75E
:10FE300053FC05003019FFF74FFC099B2DB2002140
:10FE4000595E099B00B202229A5E04002B005443C3
:10FE50004B43484355430A9E1B1B029C1B142D1801
:10FE6000A3532D14089BBD530020185E6B463C2401
:10FE70001C5F089B40220221595E6B469B180022A2
:10FE80009B5E22001D0042434D4343436143521B8E
:10FE9000049E029DCB1812141B14AA53BB530C9B37
:10FEA000159A013B0C932B0094460433149A029349
:10FEB000079B0437634494460793139A099B634452
:10FEC00094460993089B634408930C9B002B00D035
:10FED0001CE70B9B9B000793019B1093019B9B08C6
:10FEE0000493109B042B00D81DE1079B079A9B00ED
:10FEF0001B93079BDB001C930C2353431F93019B15
:10FF0000049A9B001A93049B9B000593049BDB00BF
:10FF100008930C2353431193069B0D930C930B935F
:10FF20000E9B0A93002309931300013B2093059B2A
:10FF300002332193099B209A934200D9EAE00B9B5C
:10FF400000229B5E13930B9B02229B5E14930C9BDF
:10FF500000229B5E15930C9B02229B5E16930D9BC9
:10FF600000229B5E17930D9B02229B5E0A9A1893B8
:10FF700094461500219B63440293099B0F930F9BAA
:10FF8000129A934200D3AFE0059A029B9E5E002234
:10FF9000AB5E1993089BEF5E199BD819FFF79CFB8A
:10FFA0000223EC5E1D90A019FFF796FB199B1E9093
:10FFB000D81BFFF791FB0700A01BFFF78DFB089AEA
:10FFC000029B19909E5E059B3FB2E85E119B7F10DD
:10FFD000EB5EC018FFF780FB029B04000020185E58
:10FFE00024B28019FFF778FB74226B469B1800211E
:10FFF000595E641049100B195B102B806B4604325C
:020000022000DC
:100000009B1800229B5E0C1B5A1003B25810131849
:100010005B106B80131A059AAA5E02990020095E94
:100020001D911599169861435843091A05980914AA
:10003000295216994C4315994B430299E3181B1406
:100040000B800B0008995E5E119BE85E101AFFF7AB
:1000500043FB1D9B0400981BFFF73EFBBBB29C4675
:1000600064216B465B1800215B5E614602B224B2DC
:1000700052105B10641092B29BB2A4B2881A139E05
:100080001919149F00B209B24F434643F61B089F4B
:100090003614EE53149E62447043139E1B1B71432F
:1000A000059E40180299001488531799189812B2A7
:1000B0001BB258435143091A11980914295218992F
:1000C0004A4317994B43D318029A1B14D3530F9BDF
:1000D000019A94461A9A634494460F931A9BED181A
:1000E000029B634402934AE71B9A099B944601339F
:1000F00009930A9B1C9A04330A930B9B634494460E
:100100000B931F9A0C9B634494460C930D9B634482
:100110000D930FE7079B9B000793109B9B08109381
:10012000049B0193DAE6019B049A9B000793049BCE
:10013000DB000693049B9B0005930C235A4300238A
:1001400002920493019A129B9B1A0B93049B0B9AA5
:10015000934200D986E0069A009B9E5E039B002591
:100160005D5F039B9F5EE819FFF7B6FA009B08905E
:1001700000241C5FA019FFF7AFFA0990E81BFFF7F6
:10018000ABFA0700A01BFFF7A7FA009B059A0A909D
:100190009E5E009B029A3FB29D5E039B059A7F1074
:1001A000985E029A039BBFB29B5EC018FFF794FA59
:1001B00004007019FFF790FA6B462021595E24B2B3
:1001C00049106410A4B2039A89B20B1913806B46CC
:1001D00024229A5E03B252105B1092B29BB2009D31
:1001E000D01828800398059D059E405F009D091B3F
:1001F000AD5F039C059ED31A009AA153935313003D
:10020000029A9E5EA35EC01AFFF766FA0400A81B5E
:10021000FFF762FA00B24010039A069980B23B1AC7
:1002200053526B4628229B5E24B25B1064109BB233
:100230000099A4B2069D1A194A53039A02993818D4
:100240005052019A1C1B9446009B079A5C52049BD7
:10025000634494460493039B63440393009B634469
:10026000009373E723B0F0BD70B5040008001104DB
:10027000184A0D0C2261184A490C6261DAB2049BDB
:10028000256063728023616022729B009D4210D0C2
:1002900003D84023802D0DD00FE080231B019D4209
:1002A00005D080239B019D4207D1012302E0042356
:1002B00000E01023E360002501E001256D42A0610C
:1002C00089B20123002A00D01A00FFF7C5F92800DF
:1002D00070BDC046FA850200FAC50200F0B58FB0C5
:1002E00006911599149F89008C46944462465B18C8
:1002F0009C46031D019202933A4A069B04919B1867
:100300009B000793C3180393069BDB00FE18012391
:100310000593059B069A0437043E93424FD2029BF5
:1003200000229B5E0893019B089C00229B5E099320
:100330005C43029B02229B5E019A0221525E0A925A
:100340005A43A21A0D92039A0021525E0B92624602
:100350000021525E0C92039A0C9C0225555F624666
:100360000221515E0B9A62430D9C14190A006A43E4
:10037000A2180B9CD21361430C9C12B26543099CDA
:10038000491B63435918029B3A8004330293039B31
:10039000043B0393089B0A9C63435B18DB137B803D
:1003A0003280049A5B4273806346944663449C4661
:1003B0001300019AD3180193059B0133A8E7149AFF
:1003C00041889446079B02886344521A9A8000220F
:1003D000DA8001884388CB1861460B804A800FB0D1
:1003E000F0BDC046FFFFFF3FF0B5070088008BB0AF
:1003F00038180190119880000890109884460029C0
:1004000043D0019801390024005F0290029D00242E
:10041000185F0390454301980224005F0490022472
:10042000185F0590059C04986043281A09900024E1
:10043000385F0224165F06900024105F0790079D26
:100440000224385F069C04376C43099D651934000B
:1004500044432C19079DE4136843069D6E43059D94
:10046000801B029E6E43019D801B043D01956546E5
:10047000039E2C80049C6643861BF6136E800898AE
:100480001B18121804208444B9E70BB0F0BDF7B56F
:10049000037A04000E0017008569012B18D1C36888
:1004A000009201934369026941683000FFF79CFFA5
:1004B000AB8929886A683800FFF701FC637A012B51
:1004C0001ED1EA892988AB683800FFF78DF817E05C
:1004D000AB8929886A683000FFF70FF9637A012B2E
:1004E00005D1EA892988AB683000FFF77DF8E36819
:1004F000009701932269636961683000FFF7EEFE9F
:10050000F7BD00000122044B1A600423036000239E
:10051000436083607047C046782B002010B50248C6
:10052000FFF7F0FF10BDC0461C2A0020F0B50126E1
:10053000002510270400124B85B01E60114B057377
:100540000360114B3A004360104B114983606846C9
:1005500007F05CFD20003A0069460D3007F056FDBB
:10056000C522E31CE5832584DA77502363624C3B84
:10057000A362230020002C331E7005B0F0BDC046DE
:100580006C2B0020163F03000A3E0300123E0300BE
:10059000FA3D0300214B70B51D780400002D14D1E5
:1005A0001F4B1B78002B10D0FEF7E0FD96239B011C
:1005B00098420ADD2B001B4A5C1CD05C002803D04B
:1005C000FEF7D2FE2300F6E7FEE721002268164B75
:1005D0000D311A606268154B15481A60A268154BF8
:1005E0001A60227B144B1A70102207F00FFDE28B69
:1005F000124B1A80228C124B1A80E31CDA7F114BAB
:100600001A70626A104B1A60A26A104B2C341A706E
:1006100022780F4B1A7000F007FC70BD6D29002086
:100620006C290020193E0300F82B0020D420002064
:10063000DB200020F02000208C2B0020FC2B002051
:10064000842B0020DA200020D0200020EC20002085
:10065000EB20002010B50248FFF768FF10BDC04630
:10066000282A0020F8B507000C0000258E18B44297
:1006700007D03B6821781B683800984701342D1853
:10068000F5E72800F8BD70B505000C00081E07D07E
:1006900007F056FD2B6802005B6821002800984790
:1006A00070BD10B5FFF7EFFF10BD10B503681B68F4
:1006B000984710BD70B50D210400FFF7F6FF0A2121
:1006C00005002000FFF7F1FF281870BD70B5050088
:1006D000FFF7D9FF04002800FFF7ECFF001970BDF9
:1006E000F0B58BB06B4615000022053306000F00F5
:1006F000DA77012D00D80A2509AC2900380006F068
:1007000085F801006943791AC9B20B003733013CFF
:10071000DBB2092901D83031CBB22370071EECD1EE
:1007200021003000FFF7AFFF0BB0F0BD10B5002A7D
:1007300004D10368C9B21B68984702E0D2B2FFF740
:10074000CFFF10BD10B5FFF7F1FF10BDF8B50600E3
:100750000C00151E04D10368C9B21B68984714E049
:10076000D2B20A2D0DD12A0000290ADA2D21FFF775
:100770009CFF614207002A003000FFF7B1FF3818E4
:1007800003E021003000FFF7ABFFF8BD10B5FFF725
:10079000DDFF10BD70B50500FFF7D8FF040028008D
:1007A000FFF788FF001970BD10B54022002104003A
:1007B00007F06AFC002320002364636410BD3F221D
:1007C000036C01331340426C934202D0026C81549B
:1007D000036470470120704710B503680022DC698C
:1007E0000123A04710BD0269136C506C40331B1AE3
:1007F0003F20184070470369196C5A6C914202D02F
:100800005A6C985C01E00120404270470369196C02
:100810005A6C914207D03F215A6C985C5A6C013255
:100820000A405A6401E0012040427047037E002BD9
:10083000FCD1704710B50400080011000022227698
:100840001A00FEF799FD10BD10B50400FEF766FD15
:1008500023695A6C1A6410BD00234360FA239B007D
:100860008360034B01610833036042617047C046F7
:10087000BC3E0300436910B5196C5A6C914202D119
:10088000002303760AE001223F2102765A6C985C2D
:100890005A6C01320A405A64FEF7FAFC10BD00009F
:1008A0000E4B70B51B780400002B15D04026406914
:1008B0000B4D7642036C426C01332B4002D5013B59
:1008C000334301339342F5D0FFF779FF237E002BAA
:1008D00002D12000FFF7CEFF012070BD6C2900205F
:1008E0003F000080114B70B51A6A05001C00002AF9
:1008F00004D0FEF7E3FC2800FFF7BCFFE368002B01
:1009000012D0FEF7D5FCA323094ADB00D458FEF72A
:10091000DBFC002808D1E1B22869FFF750FF054B46
:10092000002B01D000E000BF70BDC046FC2000409D
:10093000002000400000000010B5034B82001B683F
:10094000D15000F075F910BD0020002010B5040052
:1009500000F08EF90022024BA4001B68E25010BD8B
:100960000020002010B5FEF7FDFB00F013F900F0A9
:10097000BBF8FCE7054B02001968002901D10449C6
:100980001960186882181A607047C046582A0020FB
:100990002C3400200C4B30B59A68002A11D08020EE
:1009A00000210A4A40041468556800196941106022
:1009B0005160146855682000E9B21060516000224F
:1009C0009A6000225A6430BDFC100140602A002069
:1009D0000300914206D002D98A1AD34002E00300F4
:1009E000521A934018007047421E030070B5002051
:1009F000052A43D88025581C2149224B0A781B78A8
:100A00006D008540204C21489200012B0CD1204BD9
:100A10001B781B041A43FF23110022221B020A43E6
:100A20001D402A43025108E05B0113430222134395
:100A3000FF22120215402B4303510122C223002141
:100A400052429B00C250F9330232FF33C250114B65
:100A5000596002605A680D4D002AFBD0A123DB00CB
:100A6000E8580D4B0A211A68FFF7B2FFA0230022B5
:100A7000DB00EA5001236B6013332B5170BDC0467D
:100A8000C4200020C52000200405000000700040A4
:100A9000C6200020FC700040C82000200F4970B51F
:100AA0000D000E008EB08C1C82350D4B1868FFF7C0
:100AB0009BFFA31E1880002323800434AC42F4D192
:100AC000009303A9402207A8FFF7CEFB054A310097
:100AD00007A8FFF7DCFC0EB070BDC046682A0020F6
:100AE000CC200020E82A002070B5104C10492000CE
:100AF000FFF7ECFD0125FFF7D1FF0E492000FFF7BE
:100B0000D0FD0A2229002000FFF740FE0A492000FC
:100B1000FFF7C7FD094B6A00D15E20000A220135AC
:100B2000FFF738FE402DE8D170BDC0467029002087
:100B3000EC3E0300F43E0300FC3E0300E82A0020E4
:100B40000122F8B506000E4C0E4B0F0020000E4996
:100B50001A70FFF7BBFD0D492000FFF7A2FD35001D
:100B6000AB1B9F420ADD0A492000FFF79AFD297856
:100B700010222000FFF7E6FD0135F1E7F8BDC04681
:100B800070290020682B0020013F0300173F03005D
:100B9000153F0300962110B5064C89012000FFF790
:100BA0001BFE05492000FFF791FD0448FFF7F2FC0A
:100BB00010BDC046702900201A3F0300282A0020DB
:100BC00023DF704724DF704728DF704770B5890145
:100BD000002815DAC0B20F230340083B124A9B08D5
:100BE0009B009B1803221040FF24C200DD69201CDB
:100BF000904085430C4094402A1C2243DA6112E065
:100C000082080A4B03249200D2182040C023A0403F
:100C10009B00FF24D558261C8640B5430C408440D9
:100C2000281C2043D05070BD00ED00E000E100E042
:100C30000D4B10B51B68041C002B08D044B2201CBF
:100C40000121FFF7C1FF201CFFF7BAFF0AE040B205
:100C50000121FFF7BBFF1F231C400123A3401C1CE5
:100C6000024B1C6010BDC046702B002000E100E06C
:100C700008B5084B1B68002B03D040B2FFF7A2FF5A
:100C800006E01F23184001238340181C024BD8673D
:100C900008BDC046702B002004E100E0BFF34F8F79
:100CA000024A034BDA60BFF34F8FFEE70400FA05F8
:100CB00000ED00E062DF704763DF704767DF704779
:100CC0006ADF70476CDF70476FDF704773DF704714
:100CD00074DF704710DF704708B5FFF7DFFF08B516
:100CE000FFF7DCFF08B50748FFF7E6FF002801D053
:100CF000FFF7D4FF044B002B02D0012000E000BF1F
:100D000008BDC046E42B00200000000010B5041C04
:100D100000F05AFF3148211C00F066FA2088103894
:100D20000A2859D805F068FD06204C325858585802
:100D3000583B44002A4BA2881C1C1A80294B002BCC
:100D400002D0002000E000BF274B002B01D000E0C4
:100D500000BF264B002B3FD02488201CFFF7B8FF94
:100D6000201CFFF7B3FF37E0214B002B01D000E040
:100D700000BF01221A4B52421A8001F0CDF8002820
:100D800001D0FFF78BFFFFF7ADFF25E0144B0021EB
:100D90001888184AFFF798FF00281DD0F1E7A079BE
:100DA000002819D10F4B002B16D000E000BF13E034
:100DB0000E4B002B10D00620205600E000BF0BE0A9
:100DC00020896289A1890C4BE4881C600B4B186058
:100DD0000B4B19600B4B1A6010BDC04672300020DF
:100DE000D8200020000000000000000000000000EB
:100DF00000000000862B002094300020A03000204E
:100E00009C3000206C30002008B5024B186001F0C7
:100E1000D5FA08BD742B002008B5FFF73FFF08B5D1
:100E2000FFF73CFF00000000F0B5C34A0123136048
:100E30008022D205D360C1495360C3B00320FFF7BD
:100E400049FFBF4E31680B78002B00D13360BD4D98
:100E5000286807F075F9BC4CBC4B2070186807F087
:100E60006FF93368BA495A4253412278C0B20870C8
:100E70009B00142A01D91422227022780026B24243
:100E800001D0961CF6B20025A84201D0051DEDB296
:100E90000633F318EB18DBB21F2B12D91F3BDBB262
:100EA00000280AD0834205D90125281A1B18DBB275
:100EB0000D7002E0C01A08700023002A01D0D31A76
:100EC0002370A44B00229A56143201DA14221A70AD
:100ED00000229A56042A01DD04221A709E4B1A68D9
:100EE000132A01DC14221A601968A022920191428F
:100EF00000DD1A6009ADFF232B70984AFD236B704B
:100F0000281C00236B60AA60AB7001F0B7F80028C2
:100F100008D00123281CAB7001F0B0F8002801D0E4
:100F2000FFF7BCFE0023009303208D4950228D4B18
:100F300000F0DCFC0028F3D101221023134305A8A4
:100F40000370804B22781B68191C0393FFF7BAFECD
:100F5000011EE5D1844E854D1022854F3260182345
:100F6000844A07AC2B606423136038600822201C7D
:100F700007F08AF833687F4923802B68201C638040
:100F80003B68A3800B68E380FFF79AFE0028C7D177
:100F9000704C00202056FFF791FE0028C0D1764CFF
:100FA000201C00F047F90028BAD1744B1D68002DB1
:100FB00009D0734B281C1978724B1A68724B1B7836
:100FC000FFF778FE71E0714B1E78002E2BD06E4635
:100FD0000423B37568466E4B12AC6E4910224A303A
:100FE000238007F013F86C4B0E941B880CAF5BBA90
:100FF00063826A4B291C1B8838225BBAA382684B28
:1010000016361B78A37518AC4C233B80201C172385
:10101000BB8007F039F801222570A280A660E76244
:10102000201C291C3CE06F460623FB75638806AD37
:101030002B80237826AC3822AB70311C201C07F0A3
:1010400023F8404917370B68311C1B78A7605A1EDC
:10105000934134AF01225B00A280381C38222370F8
:10106000A67007F011F8364B1968002903D0012348
:101070003B83FD6102E001222283E561344B1A7853
:10108000002A07D00FAB9A80304A002012681880DF
:10109000119231932F4B2993002900D0391C26A897
:1010A00000F0E0FB002800D03AE73E4C1422201C60
:1010B000002106F0E9FF284B18883B4B1A780023E3
:1010C0009A4207D12F4B1B685A425341023363287F
:1010D00000D86420002523706560257206F02CFC82
:1010E000144B134A05F07AFC05F05AFC2F4B1E22D4
:1010F0001A809A78208201200243E1210A400C21C3
:101100000A4320218A439A700722DA7010221A714A
:101110000521274A658201F06FF9041EAC4200D018
:10112000FEE6FFF7DFFD201C43B0F0BDC046C04621
:10113000000000000000E43F702B0020D90C0200EA
:10114000F82B0020D420002070300020F020002058
:1011500098300020EC200020D0200020DF0C02007E
:10116000942B00200D0D020094300020A0300020B0
:101170006C3000209C30002072300020802B00203A
:101180007C2B0020902B00207D2B00208C2B00201E
:1011900002150000DB200020FC2B0020842B002007
:1011A000DA200020E42B0020EB200020862B0020FA
:1011B000090E0200C046C04666DF7047A0DF7047D8
:1011C000A2DF704752DF704710B5041C06F038FCF0
:1011D000002802D0303CE0B204E0201C06F0E4FF1E
:1011E0005738C0B210BD000010B50B88112B05D0C8
:1011F000502B07D0102B19D18B8801E001235B42C3
:10120000C38313E0CB88C4899C4208D1084B002BD0
:101210000CD0081C2030C98BFFF792FC06E0C28A74
:101220009A4203D188881321FFF7C6FF10BDC0463C
:10123000410B02000123F0B55B42C3839B4B91B08D
:101240001C68071C002C25D00F25237800262D3B79
:101250005A425341E4182078B04204D0FFF7B4FF5B
:1012600006010134F6B22078002804D0FFF7ACFF65
:1012700006430134F6B209A82E54013DE5D2437B62
:10128000027B1B0213437B80391CFFF79BFF002866
:1012900004D006E101230370854B43803B7802A90B
:1012A0008B707B883A1D01200B80FFF787FF041E9F
:1012B00000D0F7E0211C0322684606F0E5FE01227B
:1012C000102313436A4613700122102313436A4606
:1012D0005370937806229343022209AD13436A4662
:1012E0009370211C1C22281C06F0CEFE2B780222B3
:1012F0001343102213432B7000AB6B613B786A469B
:101300006C60EC602C61AC6193737B88211C0133B1
:10131000938101A8032206F0B7FE01221023134394
:101320006A46137100235371937906229343022274
:1013300013430822934310229343012204AE134324
:101340006A469371211C1422301C06F09DFE03ABEB
:10135000049301AA1423726034817481B3813461CF
:10136000B888BB1D291C321CFFF72AFF041E00D0C1
:1013700098E0211C1C22281C06F086FE2B780822EF
:101380001343042213432B703B786A466C60EC6075
:101390002C616C61AC6193737B88211C0233938157
:1013A00001A8032206F070FE6A46002313715379E8
:1013B0000F229343012213430F22134010221343A1
:1013C0006A465371937906229343022213430822FB
:1013D000934310229343012293436A469371211C45
:1013E0001422301C06F050FE03AB049301AA142310
:1013F000726034817481B38134613B1CB888291CCC
:10140000321C0E33FFF7DCFE041E4BD1211C1C22C4
:10141000281C06F039FE2B780822134304221343BC
:101420002B703B786A4693736C60EC602C616C6146
:10143000AC617B88211C0333938101A8032206F051
:1014400023FE6A460023137153790F22934301222E
:1014500013430F221340102213436A4653719379AA
:1014600006229343022213430822934310229343FC
:10147000012293436A469371211C1422301C06F00A
:1014800003FE03AB336001AA01237260B381348190
:10149000748134613B1CB8881633291C321CFFF759
:1014A0008FFE041C201C11B0F0BDC046F82B00209C
:1014B0002022000062DF704769DF70476DDF7047F0
:1014C00054DF7047F0B587B00C9F061C38780024B5
:1014D0000391029200930190251C33889D4238DAD3
:1014E0007268A900511805A8042206F08FFD69460C
:1014F00005A813310022FFF7E3FF002832D1684628
:10150000C37C02998B4220D1624262413B785200F7
:1015100059188A181F2A1ADC002C06D19A1C3A7016
:1015200001330398009ADBB2D05400996C463A78A4
:1015300013348A1805A8211CFFF7C2FF002811D117
:101540003A7823780124D3183B700135C5E70C2085
:1015500008E00020844205D03B78019A013B0099C5
:101560009B1A8B5407B0F0BDF7B5089E171C009668
:101570000222051C1C1CFFF7A5FF002806D10096BF
:10158000281C391C1022231CFFF79CFFFEBD000005
:10159000F0B500231370037887B0061C0D1C141CD3
:1015A000002B03D1B378002B41D021E06F461637D2
:1015B0001D23881C391C3B80FFF780FF002800D0CA
:1015C00047E173780921002B04D03A889A4201D967
:1015D0003B8008212278531C23703B78581CA85468
:1015E0002278501C2070A95422789B182370D9E7C8
:1015F00023780C201B2B00DD2BE16F461637381C9F
:10160000FFF75AFF002800D023E1237839885A1CBD
:1016100022700322EA5423785A1C22701922EA54B9
:101620002378EA1811700233090A51702370B288C6
:10163000002A1ED0B168002900D109E123780C20CE
:10164000991C8A181F2A00DD03E15A1C2270B288F7
:101650000132EA5423785A1C22700122EA5420787D
:10166000B2882818B16806F0D1FCB2882378D31864
:101670002370F368002B12D01A7823780C201C2BCF
:1016800000DDE6E0591C21700221E9542378591C41
:1016900021700A21E9542378591C2170EA54338AB5
:1016A000002B03D1338B002B16D00AE0301C0094A2
:1016B0001030022106222B1CFFF756FF0028F1D024
:1016C000C7E0301C00941830032107222B1CFFF7C1
:1016D0004BFF002800D0BCE0338C002B0AD0301C1C
:1016E00000942030142115222B1CFFF73DFF002809
:1016F00000D0AEE0B36A002B41D022780C200292D9
:1017000006321F2A00D9A4E019880720052900D82D
:101710009FE0514A8F18514ABFB2974200D898E0D3
:101720005A88052A00D894E04B4FBF18BFB2BC4678
:101730004A4FBC4500D88CE0494FB94204D0BA4268
:1017400002D0914200D984E0029A029901322270BB
:1017500005226A542278511C21701221A954227842
:101760001888A9180870000A4870901CC0B2207030
:1017700059882B1819700432090A59702270F76AB7
:10178000002F28D03A792378911C981CC9B24118AF
:101790000C201F295DDC591C03322170EA54237888
:1017A0005A1C2270FF22EA5423783988EA1802333F
:1017B0001170DBB2090A51702370BA88002A0AD06E
:1017C000B9680720002944D0E81806F01FFCBA8841
:1017D0002378D3182370371C343703973B780020C5
:1017E000834236D0316B814232D00290039F3B78E6
:1017F000029FBB422AD9029A0C275743336BDF1949
:101800003A7923780332591C2170EA5423785A1C00
:1018100022701622EA5420783A882B1802301A7067
:10182000C0B2120A5A702070BA88002A09D0B9686A
:1018300000290DD0281806F0E9FBBA882378D318C0
:101840002370029B0133DBB20293CFE7002000E05C
:10185000072007B0F0BDC0467FF3FFFF7DF3000017
:10186000FFFF0000F0B593B06D466E4600230635CD
:1018700007360C1C2B70337098420BD08388002BDA
:1018800001D1072024E08368002BFAD01B785A0787
:10189000F7D516E0071C002C03D0A388002BF0D14D
:1018A00006E0221C29783378381CFFF703FE0FE08E
:1018B000321C201C0AA9FFF76BFE0AAA0028F1D0EF
:1018C00006E002A92A1CFFF763FE02AF0028E2D05F
:1018D00013B0F0BD50DF704723DF704710DF704753
:1018E00008B5081C111CFFF79AFA08BD38B5041C8E
:1018F00007208D0713D1002911D00948016009493B
:10190000201C0A80084A09491360094B049A1A608E
:10191000FFF7E4FF002802D11620FFF7DDFF38BDF6
:101920000C2C0020082C0020042C0020E1180200C0
:10193000002C002013B50B4B0B4C69461B8806315D
:1019400020680B80FFF7C6FF05280AD0002803D0C7
:101950005F21064AFFF760FA054B20681B6898472D
:10196000E9E713BD082C00200C2C0020233F0300C6
:10197000042C002008B5074B1B68002B07D09847A4
:10198000002806D07121044AFFF746FA01E0FFF76C
:10199000D1FF08BD002C0020233F030071DF7047FA
:1019A000A9DF7047AADF7047F0B5164A164C1278C7
:1019B000164F9446164A002323703B701E32191CA2
:1019C000181C60451ADA141C1E3C657A6E0708D58F
:1019D000104E2468CD00AC55013175196A60C9B24A
:1019E00009E00D4E2468DD00AC55141C7519243433
:1019F00001336C60DBB201306832E2E7024A3970D1
:101A00001370F0BDE42F0020E52F00204C2C0020A7
:101A1000A42C0020642C0020142C002070B50D4A4A
:101A200001235B4213600C4B151C1C780023A3425E
:101A30000EDA6822111C5943084E7118CE8F864267
:101A400004D1281C06F0E2FA002002E00133EEE7A0
:101A5000052070BD7C2F0020E42F0020A42C002046
:101A600008B5064B00215A6E8A4201D0191C50312C
:101A7000034B92B21888FFF793FF08BD7C2F00201C
:101A8000102C0020F8B580235B05071C1869502135
:101A900080B204F0BBFE1B4E83B2357804209D4219
:101AA0002ED2194C002D08D02068391C0430132286
:101AB00000F061FC002823D10EE0291C281C2A1C00
:101AC00000F036FC114B211C1880114B187800F0E7
:101AD0006DFC0028E8D013E00C4D4C21381C2A1C6A
:101AE00000F026FC0B4928800143206800F03EFCF2
:101AF000002805D1236850332360337801333370D5
:101B0000F8BDC046122C0020542C0020A22C00202E
:101B1000582C00200000DE45F8B580235B05071C2B
:101B20001869502180B204F071FE1B4E83B23578E3
:101B300004209D422ED2194C002D08D02068391C5B
:101B40000430072200F017FC002823D10EE0291CE6
:101B5000281C2A1C00F0ECFB114B211C1880114B97
:101B6000587800F023FC0028E8D013E00C4D1C212D
:101B7000381C2A1C00F0DCFB0B492880014320683C
:101B800000F0F4FB002805D123682033236033786C
:101B900001333370F8BDC046A02C00209C2C0020DF
:101BA0004E2C0020582C00200000DE4510B5054CBE
:101BB000207800F0F1FB002802D1607800F0ECFB07
:101BC00010BDC046582C0020BA4BF7B51B78071C37
:101BD000002B03D1B84B08209B6898473B88172BF4
:101BE00064D005D8102B09D0142B00D130E18DE141
:101BF000182B00D170E1522B4DD087E1BA88AF4C41
:101C0000AF4B201C1A8001235B424230B91D0722D2
:101C1000236006F0FBF9002363667B7BDD07ED0F95
:101C2000EDB2002D0DD05B08062B04D8A54ADB00D1
:101C3000D156062916DDA04B03209B68984718E073
:101C40000135A14B1B789D4213DAA04EEF00F3192A
:101C50005868211C01304331062206F0AFF90028F4
:101C6000EED1B95768225143994B201C591806F000
:101C7000CDF92168013100D148E1FFF7F1FE8E4D29
:101C8000002801D0AA6890476B68002B00D13DE185
:101C900001A80122D8E0894B1B68013317D1884B7A
:101CA000002118880A1CFFF77BFE56E0BE79BD1D97
:101CB000002E00D02AE1814C2368013353D1E888FB
:101CC000FFF7ACFE002802D0052803D045E0FFF75F
:101CD000C7FE42E07F4A1778062F01D904203FE073
:101CE000291C3222201D06F091F9EB886822E38737
:101CF00027607B1C5743774975480B70C019211C1E
:101D0000666606F083F9FFF74FFE6D4B311C1888AD
:101D1000321CFFF745FE002822D1201CFFF7B2FE3F
:101D200004280CD1644B5A68002AD7D0216801AB33
:101D300018705970E18F181C5980904701E00028F5
:101D40000BD15D4B5B68002B00D1DFE001A80022C6
:101D5000027022684270E28FD6E0002800D1D5E000
:101D6000554B9B68D1E0A288FB889A4201D00020A5
:101D700046E0A1793A7A072319401A409142F6D1F8
:101D8000E279797A1A400B409A42F0D1217ABA7AF4
:101D90001F2319401A409142E9D1627AF97A1A4018
:101DA0000B409A42E3D16289BB899A420CD1227FCF
:101DB000BB7F9A4208D1201C391C0C3052080E31CE
:101DC00006F0FCF846424641F307D0D5201C391CEA
:101DD0001E302031102206F0F1F80028C7D1231C54
:101DE0002E331A783B1C30331B789A4208D1201CC2
:101DF000391C2F303131062206F0E0F843425841B9
:101E0000C10700D582E0291C3222201D06F0FEF811
:101E1000EB88201CE387FFF735FE274D04280AD105
:101E20006A68002A09D0216801AB18705970E18FE7
:101E3000181C598002E0002801D0AA6890476B68FE
:101E4000002B63D001A8032221680270417082E751
:101E50001A4C0C22201CB91D363006F0D7F8E08F42
:101E6000FFF7DCFD021E0DD1154B211C18880A312D
:101E7000FFF794FD002802D00F4B9B689847FFF7AF
:101E8000EFFD11E0052811D10D4C002120880A1C1E
:101E9000FFF784FD002802D0074B9B68984700217C
:101EA00020880A1CFFF77CFD021E2FD0024B101C5D
:101EB0009B682AE0502C0020582C00207C2F00200A
:101EC000102C0020642C0020E52F0020142C002072
:101ED000A42C0020E42F0020BB791A07120F1B0945
:101EE000012A02D1012B04D810E0022A0ED1002BC6
:101EF0000CD0074B5B68002B08D001A802220270AF
:101F0000044A11684170D28F42809847F7BDC0469D
:101F1000582C00207C2F00204E4BF7B51A78082350
:101F2000002A00D194E04C4D6C462B6806340133F6
:101F300020D014232380494B291C18885031221C9F
:101F4000FFF730FD031E00D082E0238828686B660F
:101F5000E8640323002800DA7AE0414A12789042CC
:101F600076DA682250433F4B291C181806F04EF8C9
:101F7000FFF71AFD0020011C021C00F0D9F9002710
:101F80002080374E33789F420ADA68207843354BF9
:101F90004C211818221C00F0CBF901372080F0E703
:101FA000314B22881B889A4207D10020011C021C59
:101FB00000F0BEF90027208015E02C4B187800F0C7
:101FC000EBF9031E44D12A4B071C187033789F424B
:101FD000EBDA68207843234B1818FFF753FD0028ED
:101FE00035D10137F2E733789F420BDA68237B4320
:101FF0001C481C214C30C018221C00F099F90137F4
:102000002080F0E71B4B22881B889A4208D10123CD
:10201000124A5B4213802B60EB6400236B6617E06F
:10202000124B587800F0B8F9031E11D1124B041C62
:10203000187033789C42EADA6823634309484C30CD
:10204000C018FFF769FD002801D10134F1E7031C36
:10205000181CFEBD502C00207C2F0020102C0020CE
:10206000E42F0020A42C0020A22C0020582C0020BB
:10207000122C00204E2C0020A02C0020F0B5031CB8
:10208000806897B0002800D1ECE0802252051169E9
:10209000764A89B20C20914200D8E4E0744C221CAC
:1020A00023CB23C2734D00216822281C05F0ECFFCE
:1020B000714A01235B42714913802B6000230B702E
:1020C0006F4A704913700B70A378002B03D16C4CCE
:1020D000002323703DE0FFF769FD0028F7D0C2E040
:1020E000664D694C2A78002A38D02168674B0E6803
:1020F000320C12049A423FD104314C2203A805F05D
:1021000085FF634F03A84C213A1C00F011F9B6B2C9
:102110003880B04275D12B7801332B702368584D2D
:10212000503323602E78039CB4426ADC68256543F3
:10213000584B03A95D19281C4C2205F067FFB442D7
:1021400007D1012300225B426A66EB644C4D0134E7
:102150002C704B4C2378062BC2D912E0111C101C9A
:1021600000F0E6F842494A4B18800878211C00F03C
:102170001DF90028B9D002E0013642D101E005285E
:1021800069D1002617E03B783D4A01333B70236854
:10219000127820332360039B934232DC682253433E
:1021A0003C4A0136D318019A4C3323CA23C331CA9F
:1021B00031C312681A60324B1B789E4237DA314FB6
:1021C000354C3A78002A1ED02368304A1D68290C05
:1021D00000950904914224D103AD01952A1C0433D2
:1021E00023CB23C223CB23C22C4D1B681C2113609D
:1021F00003A82A1C00F09CF8009928808DB2A84200
:10220000C1D00B202FE0111C101C00F091F8234BC3
:10221000174D18806878211C00F0C8F80028D3D02A
:1022200003E0009C0134ECD101E0052813D1144CEB
:102230006823227817495343CB18062A08DC01216A
:102240004942002019605866D96401326833F4E7C6
:10225000FFF7AAFB01E0002805D1114B01221A70FB
:10226000002000E0072017B0F0BDC0462F0200009C
:10227000582C00207C2F0020102C0020122C002035
:10228000E42F0020A02C0020542C00200000DE456C
:10229000A22C0020A42C00209C2C00204E2C0020DE
:1022A000502C00203DDF70470E4B0F4A022130B505
:1022B00099508021C9005D580C1C002DF9D0A12136
:1022C000084DC9006850185906490028FBD08858A5
:1022D0000224A04388508022D2009A58002AFAD0C3
:1022E00030BDC04600E001400405000038B5041CC4
:1022F0000D1C0C4B1B78002B02D0FFF7D3FFF8E727
:10230000094A0A4B01219950111C8022D200985889
:102310000028FAD005482560002444509958002927
:10232000FCD038BDE62F00200405000000E001408D
:1023300030B5041C002A01D0108800E00A48231C94
:102340001A1B92B28A420ED242BA1D7892B26A40E9
:10235000D0B2000942401003424092B2D0B24001D4
:1023600050400133ECE730BDFFFF000008B5FFF738
:10237000BDFF002008BDF8B5061C0F1C151C00246D
:10238000A300E2B2F018AA4204D2F958FFF7AEFF58
:102390000134F5E70020F8BD08B580235B051B6913
:1023A0009BB25843FFF780FF002008BD80235B05E8
:1023B0001B699BB25843086000207047014B18709E
:1023C0007047C046E62F002023DF704727DF7047A5
:1023D00028DF704749DF704708B5054B01201A78A0
:1023E00050401870034B1B68002B00D0984708BD65
:1023F000EC2F0020E82F002038B50C4B051C1520D1
:102400000C1C1A60FFF7E2FF00280ED11520291CD2
:10241000FFF7DEFF002808D11520FFF7D5FF0028C1
:1024200003D10320211CFFF7D5FF38BDE82F002082
:1024300010B58CB00191202304A903AA041C0393B6
:1024400000F09CF900280AD0064B002B07D001AB06
:102450000222995EE0B204AA039B00E000BF0CB028
:1024600010BDC0460000000000B500238DB0C9B209
:102470000192039399420BD10A4B002B10D06B466B
:102480000621595E082004AA039B00E000BF07E074
:10249000202304A903AA039300F070F90028EBD1CC
:1024A0000DB000BD0000000082B002B07047704760
:1024B000F0B5474680B488B0071C031C040C050A1D
:1024C0003F0E01900291081C161C111C0392DBB2F6
:1024D0000022A446B84605920F0C06920792EDB270
:1024E000041C052B06D9284803F002FC08B004BCE4
:1024F0009046F0BD254A990050588746244803F07D
:10250000F7FBF3E7FFF7D3FFF0E768466346C682C1
:102510005EB242460783774202754783201C01F072
:1025200061F8281C0599069AFFF79EFFDEE7194916
:102530000B68587E002802D1174803F0D9FB201CF5
:1025400001F050F86A46D6821783281C0599069A2E
:10255000FFF7AAFFCAE761464BB207A842465E42B0
:10256000474602704680002F04D0002C07D0201C64
:1025700001F038F8281C0799FFF75AFFB6E707481B
:1025800003F0B6FBF3E7C0469E030500683F030077
:102590009B030500F02F00207E0305008C0305003F
:1025A000F8B5354C354D0023061C2B70636034485C
:1025B00000F034FD2060002821D0324B427E1968A3
:1025C000002A20D1481E0F2851D8181D01F03CFBCD
:1025D00027687B7E0127002B15D1002E3CD10120DE
:1025E00000F0ACFF2672042001F056FB2168487E03
:1025F000002812D002272F70012001F091FC012346
:102600002B700020F8BD02262E700027042001F058
:1026100043FB2168487E0028ECD1002001F094FCA7
:102620002668737E002BE5D1002001F0AFFB206807
:10263000427E002ADED1012001F00AFC21684C7E96
:10264000002CD7D1002001F097FC012001F068FC9C
:102650000120002FD6D1D2E7012E03D005222A7007
:102660000027D3E7022000F069FF2672BBE70721AD
:1026700029700027B1E7C046F02F0020A4300020C9
:10268000B1240200F420002008B506480368002B9E
:1026900003D000F0A7FE012008BD034902220A7002
:1026A0000020F9E7F02F0020A43000200148036843
:1026B000587E7047F02F002008B500F037FF002843
:1026C00002D0FFF7F4FE08BD00F0ECFEFBE7C046C9
:1026D000F8B5041C0D1C161C072811D800291ED0A3
:1026E000202A04D9234D06242C700020F8BD00F0C8
:1026F000E5FF022809D91F4F09263E700020F5E7A3
:102700001C4B04221A700020F0E7201C00F0DAFFB6
:10271000022809D9174B0A221A700020E6E715494A
:10272000032008700020E1E700F0D0FF01281CD949
:1027300000F04EFF4278012313434370071C0670DC
:10274000291C321C023005F061FCE0B2391C00F09B
:1027500053FF041C0120002CC8D1074803F0C8FA1D
:10276000044E0F2535700020C0E70249082008708C
:102770000020BBE7A4300020DA00050070B5041C7F
:102780000D1C161C00F09EFF00280DD0002D0FD050
:10279000201C00F085FF326803789A420DD2134D59
:1027A00006242C70002070BD104B0B221A70FAE723
:1027B0000E49032008700020F5E7201C00F066FF9A
:1027C000041E0AD02278A11C3260281C05F01EFCD1
:1027D000201C00F007FF0120E5E7054803F088FA18
:1027E00002480F2606700020DDE7C046A430002016
:1027F0000201050008B5072804D9044B04221A7009
:10280000002008BD00F05AFFFBE7C046A4300020BE
:1028100008B5072802D800F055FF08BD024B042276
:1028200001201A704042F8E7A430002008B500F0FB
:102830004DFF0623181A08BD38B5041C072805D912
:102840000B4B04221A700025281C38BD00F036FFFF
:1028500000250228F8DC201C00F034FF0228F3DCFD
:1028600000F034FF01218142AD416D42ECE7C046EA
:10287000A430002008B50B4A11684B7E002B0BD109
:10288000072804D9084A04211170002008BDC0B2ED
:1028900000F020FF0120F9E7034B0C201870002006
:1028A000F4E7C046F02F0020A430002008B5072828
:1028B00004D9054B04221A70002008BDC0B200F0F4
:1028C00025FF0120F9E7C046A430002038B50F4CA1
:1028D000051C2068437E002B0ED1002D06D0012D53
:1028E0000FD00B4D05242C70002038BD012000F0C6
:1028F00025FE25720120F8E7054902220A70002012
:10290000F3E7022000F01AFEF3E7C046F02F0020A4
:10291000A4300020014B187A7047C046F02F0020E9
:1029200010B50C1C1249031C0868427E002A14D101
:10293000621E0F2A0CD8002B14D00E48191C221C22
:1029400010C005F063FB211C01F07EF9012010BDD1
:102950000949072008700020F9E7074B02241C7082
:102960000020F4E7044B03241C700020EFE7C0466E
:10297000F02F0020F4200020A430002010B50C4CD3
:102980000B682268934209D3102B07D800280AD07D
:102990000A60211D05F03AFB012003E0054B0722E8
:1029A0001A70002010BD034C03212170FAE7C046C5
:1029B000F4200020A4300020014B18687047C04666
:1029C000F420002008B5074A11684B7E002B04D084
:1029D000054B02201870002008BD00F0A1FE012068
:1029E000FAE7C046F02F0020A430002008B500F020
:1029F00021FF08BD08B5074A11684B7E002B04D0A3
:102A0000054B02201870002008BD00F09BFF01203C
:102A1000FAE7C046F02F0020A430002008B501F0EE
:102A20001BF808BD08B50A4B1A68537E002B0AD163
:102A3000072804D9074B04221A70002008BD01F0B2
:102A400091F80120FAE70349022008700020F5E719
:102A5000F02F0020A430002010B50C1C072806D849
:102A6000002909D001F0BAF82070012010BD054BF3
:102A700004221A700020F9E70249032008700020A0
:102A8000F4E7C046A430002008B5074A11684B7E21
:102A9000002B04D0054B02201870002008BD01F067
:102AA00015F90120FAE7C046F02F0020A4300020DD
:102AB00008B501F011F908BD08B50E4A11684B7E42
:102AC000002B12D101280AD00223002808D00123AC
:102AD000022805D0084A0E211170002004E00023CE
:102AE000181C01F0B5F9012008BD034B0220187035
:102AF0000020F9E7F02F0020A430002008B501F0F5
:102B000007FA0023012801D8014B1B5C181C08BDE3
:102B10009C3F030008B5134A11684B7E002B0AD175
:102B2000062804D9104B0E211970002007E00F4A27
:102B3000800011588F460C4B02201870002008BDF1
:102B4000002001F023F90120F9E70420F9E7EC2047
:102B5000F7E7F420F5E7F820F3E7F020F1E7FC20B1
:102B6000EFE7C046F02F0020A4300020803F030094
:102B700008B501F013F9031C0520F02B0AD00AD97F
:102B80000320F82B06D00220FC2B03D00420F42BCA
:102B900000D0012008BD0020042BFBD00620EC2B28
:102BA000F8D00120F6E7C04608B5074A11684B7E09
:102BB000002B04D0054B02201870002008BD01F046
:102BC00091F80120FAE7C046F02F0020A430002041
:102BD00008B501F08DF808BD08B5074A11684B7EAD
:102BE000002B04D0054B02201870002008BD01F016
:102BF00047F80120FAE7C046F02F0020A43000205B
:102C000008B501F043F808BD08B5074A11684B7EC6
:102C1000002B04D0054B02201870002008BD01F0E5
:102C20008BF80120FAE7C046F02F0020A4300020E6
:102C300008B501F099F808BD08B5074A11684B7E40
:102C4000002B04D0054B02201870002008BD01F0B5
:102C500055F80120FAE7C046F02F0020A4300020EC
:102C600008B501F063F808BD08B5074A11684B7E46
:102C7000002B04D0054B02201870002008BD01F085
:102C800079F80120FAE7C046F02F0020A430002098
:102C900008B501F075F808BD08B50D4A11684B7EFE
:102CA000002B0ED10023002804D1181C01F04CF990
:102CB000012008BD012809D0064A0E21117000200C
:102CC000F7E7044B022018700020F2E70123ECE73D
:102CD000F02F0020A430002008B501F03BF90138A6
:102CE0004342584108BDC04608B50D4A11684B7EA5
:102CF000002B0ED10023002804D1181C01F03CF950
:102D0000012008BD012809D0064A0E2111700020BB
:102D1000F7E7044B022018700020F2E70123ECE7EC
:102D2000F02F0020A430002008B501F02BF9013865
:102D30004342584108BDC046014B18787047C04611
:102D4000A4300020014B00221A707047A4300020EC
:102D5000014B58687047C046F02F0020014B0022FD
:102D60005A607047F02F00200249034B0F220A706F
:102D700058607047A4300020F02F002070B5274B1A
:102D8000274A0024D45086B001F0E8FD254D264E98
:102D90002C606C602C61AC60EC603378012B2BD024
:102DA000022B0ED001F0DAFD20482C61047002F0F5
:102DB00045FE032829D03178022902D07468002CFE
:102DC00015D01B4B1B4ADD681560707800213070F0
:102DD000042403A8002604704160018141814670EB
:102DE0008670C67002F04AF8012006B070BD104B24
:102DF000104A9D681560E8E702F020FE0028DAD04E
:102E00000021002002F082F9D5E7002100220023F2
:102E100000200094019402F08FFBCCE71405000021
:102E200000F00140C4300020A8300020DC30002039
:102E3000E030002000300020F0B5474680B4464B1B
:102E40008021C8001A5884B0012A1CD0434C0026A7
:102E50001B59002B17D0424C606900281ED002F08D
:102E6000EDFD012802D03F4802F042FF3E4DEB68E5
:102E7000197D002930D101F071FD002E15D104B06B
:102E800004BC9046F0BD394A354C566860693778C5
:102E900020250026BD4276410028E0D103F0C2FB88
:102EA0000028DCD101256561D9E70120012102F06C
:102EB0002DF9042814D903F03DF82D4A20615369F7
:102EC00063602478022C0FD0002B0DD197682F60FF
:102ED000002003F035F8D2E7264802F009FFCAE7E0
:102EE000254E8200B758BF46D2682A60F0E72348D3
:102EF00002F0FEFEDFE702F063FA061CE089A78914
:102F0000804602F057FAEB680022997D01AB1F81E1
:102F10004746029658701A705F819970DA70181CD3
:102F200001F0ACFFC7E702F04BFA061CE089A78965
:102F3000804602F03FFAEB6800219A7D01AB1970E0
:102F40009A7041460122029658701F815981DA70A9
:102F5000181C01F093FFAEE700100040340500009C
:102F6000A83000205706090000300020C43000209F
:102F7000E030002058060900A03F03007706090052
:102F800038B51C4800248481C48102F013FA1A4C1D
:102F90001A4A0125A05002F00DFAA621CB00854067
:102FA000E55002F00DFA164D286002F00FFA686045
:102FB0001448E86002F09CFFA121CB00E05002F031
:102FC0003DFD012807D002F039FD022802D00E484D
:102FD00002F08EFE002001F0D3FB03F0BBFB0B4C94
:102FE0000B4BE268A225E90058500A4D516859512F
:102FF00038BDC046A8300020001000402C0500005D
:10300000C4300020392E0200DE0509000030002007
:1030100000F00140140500007047C046F8B55F4657
:1030200056464D464446F0B4061C012585F31088EB
:10303000C54A0023032100270125117093705360B6
:1030400093609381D38113615361557017765776DE
:10305000BE4CBF4AA1201351C4001151BD48BE4C03
:103060000360A360636043608360C36003610775AE
:1030700001F036FDE06003F06DFA301C01F0E4FE73
:1030800001F080FF002002F0FBFD201C02F034FE66
:10309000B24EC22081007258B14BC027134073500A
:1030A000BA00B058AF49C5230140B1509A00B15899
:1030B000FF27B94340200143B15085F31088A24D4A
:1030C0002B78012B00D115E16E7E01276F70002E49
:1030D00000D007E1FFF752FE2B78A34E9C46002359
:1030E00083F31088A14BA321CF00D859A049802297
:1030F0000140D0020143D9519E4A9F4FFF213161C7
:10310000A4209F509D4FC2009F509D4A98588843CD
:1031100098509F588020384398509858914F384085
:103120009850BA4680209F58C00107439F509F582F
:103130008B4807409F5083469858C02781463804E3
:103140004F463843985098580002070A9F509858A5
:1031500080278146B8054F4638439850A522D200B3
:103160009F58381C884398509858A0210143995083
:103170009F585046384098509F58C021C801384346
:10318000985099585846084098509858E027390464
:10319000014399509F583802010A99508027985846
:1031A00079050143962099500A278100022362463F
:1031B00077617160F360022A03D06F68002F00D13D
:1031C0008DE00F22B260022323606E4F674C6E4881
:1031D00000227283E2512358FF27BB43235021581A
:1031E00002220A432250694B6948A721E0506948EE
:1031F000CA00A223A050D900674A684B0120605042
:1032000013606749674B684A0B606849684B1160F7
:103210006849694A1960694B0021136030767076FD
:103220003177002002F01EFD69233360474B64486C
:10323000E6580F223040E050E658062196430E43F0
:10324000E650E0585F4EC022910206400E43A32094
:10325000E650C00022585C4B802113402350265872
:103260004A043243225023583E4EBB4320273B435F
:10327000235021580E4026506C78012C02D0534820
:1032800002F036FD01242C7000260024AC706C6026
:10329000AC60AC81EC812C616C612E766E7603F0B3
:1032A00055FA344D2A4B4A495851A3224948D70070
:1032B0000326D951C0251E508022284E8021680047
:1032C000D70002234D0337503350355084F3108814
:1032D0001D483CBC90469946A246AB46F8BD0F231C
:1032E000B36071E703F098F9012807D029781E4EE2
:1032F0008C46F4E60126B4461B4EF0E602F0E2FCF2
:1033000000281DD134486421002203F091F9164EA3
:10331000307F00280FD131490127802380220F60A0
:103320005200D90588500F60C046C046C046C0460E
:1033300088580028FCD003F047F92F78BC46CEE629
:10334000274802F0D5FCDDE7A83000201405000076
:1033500000F00140C43000200030002000E100E017
:10336000FFFF00FFFF00FFFFE030002000100040E3
:10337000FFFFF8FF1C050000B050E02070D010A047
:10338000240500000C050000340500003C05000089
:10339000FFFF0000211001002417004000500078BA
:1033A000281700404E0000542C17004002800C608B
:1033B000301700401164660034170040DEC08F8271
:1033C000FFFEFFFFFFFFF0FFFFFFFFFDDA01090037
:1033D0000411004004050000D15C02001405004007
:1033E000EC05090038B5264C637E002B13D1254D22
:1033F000A86800283CD06968002911D002F056FC6A
:10340000002809D1002002F043FC0122627603F07B
:1034100003F901280CD038BD1B4802F069FCF1E724
:103420001A4802F065FC02F041FC0028EAD0F3E7FC
:1034300002F048FC00281FD115486421002203F047
:10344000F7F8144C237F002B0FD1134A012580205D
:1034500080211560C90542008B500D60C046C046F2
:10346000C046C0468B58002BFCD003F0ADF8D2E725
:103470000A4802F03DFCBEE7094802F039FCDBE7F0
:10348000A8300020003000200802090001020900D5
:10349000D15C0200E0300020140500400002090069
:1034A000EC05090008B5012383F310881A4B5A7EF6
:1034B000002A02D09878002803D0002080F31088DA
:1034C00008BD0121997003F0A7F80128F5D102F099
:1034D000F9FB00281BD100221048642103F0A8F852
:1034E0000F4A137F002B0FD10E4A0120106080215C
:1034F0008022C90552008B500860C046C046C046B5
:10350000C0468B58002BFCD003F05EF8D5E7064888
:1035100002F0EEFBDFE7C046A8300020D15C0200DD
:10352000E030002014050040EC05090002480123AA
:10353000407E58407047C046A830002008B501239F
:1035400083F310881A4B1A78824205D05870587E3F
:10355000002805D1FFF712FC002080F3108808BD79
:1035600003F05AF80128F7D102F0ACFB00281BD178
:1035700064211048002203F05BF80F490B7F002BF9
:103580000FD10E4A0120106080218022C90552000F
:103590008B500860C046C046C046C0468B58002BC2
:1035A000FCD003F011F8D7E7054802F0A1FBDFE7F4
:1035B000A8300020D15C0200E0300020140500405B
:1035C000EC050900014B18787047C046A830002070
:1035D00008B5012080F3108802F038FB002383F344
:1035E000108808BD08B5012181F3108802F032FB74
:1035F000002383F3108808BD08B5012383F31088E6
:1036000002F022FA00280BD01B4B9A78002A02D134
:10361000587E002808D1002080F31088012008BDC2
:1036200080F310880020FAE702F0F6FF0128F2D1BB
:1036300002F048FB00281BD164211048002202F050
:10364000F7FF0F490B7F002B0FD10E4A01201060AE
:1036500080218022C90552008B500860C046C046B8
:10366000C046C0468B58002BFCD002F0ADFFD2E71D
:10367000054802F03DFBDFE7A8300020D15C0200E6
:10368000E030002014050040EC05090008B50121D8
:1036900081F3108802F0C8FA002383F3108808BD74
:1036A00008B502F0BBFA08BD08B5012181F3108806
:1036B00002F09CFA002383F3108808BD08B502F0DD
:1036C000A9FA08BD08B502F0BBFA08BD08B502F0BA
:1036D000C5FA08BD10B5041C012383F31088094BFB
:1036E0001A78002A02D0587E002806D1201C02F049
:1036F00081FA002181F3108810BD034802F0F8FA26
:10370000F4E7C046A83000209E02090008B5012158
:1037100081F3108802F08EFA002383F3108808BD2D
:10372000F0B5C2B20123551097101F401D40D610AE
:1037300079011E40AD01D41137010D43561111110D
:1037400019401E4025433D43CC00B7009111060AA5
:10375000F6B2194025433D434C007710B1101F408D
:10376000194025431A40BC014901F710AC461F40DF
:10377000D5012143F2113C01114332111A4021437A
:103780007411D7001C40A2003943B7111F401143E8
:10379000020CD2B27C001E4021435710F401961057
:1037A0001F401E407601BF013743D6113743D61064
:1037B0001E403601374316111E40F600374356119E
:1037C0001E40B600374396111E401A40760037431C
:1037D000D601624615433A1C324321432D06160298
:1037E0000F042E433E43070E7910BD1019401D40B3
:1037F0008A01F8106D01FC111840154339110201BE
:10380000194025437811CC0018401543B9118200A6
:103810001940254315434C001F402543F8012B1C3C
:103820000343024A024933438B50F0BD1C0500009C
:103830000010004070B5414B414AD2580123D6B226
:103840007510B0101D401840AC014001F510F11189
:103850001D40204308432C013111194020437411AD
:10386000CD001C40A1002843B5111D400843110A9A
:10387000C9B26C0020434D108C101D401C406401E7
:10388000AD012543CC112543CC101C402401254318
:103890000C111C40E40025434C111C40A40025439E
:1038A0008C111E401C401940F60164002543304332
:1038B000CC01160CF6B225432904B41075101D4036
:1038C0001C40000608436401A9010C43F110F511E6
:1038D00019402C430D01311119402C43CD007111B9
:1038E00019402C438D00B11119401E402C434D004E
:1038F000120EF1012C430C435510011C90101D4079
:10390000184026024001AC0131432043D611D510A6
:103910001D40304316112C011E40F5002043541168
:103920001C4028439511A6001D4030436C001340F5
:103930002043DB011843084370BDC0461C0500004E
:1039400000100040F0B5C2B20123551097101F407F
:103950001D40D61079011E40AD01D41137010D4331
:103960005611111119401E4025433D43CC00B700AC
:103970009111060AF6B2194025433D434C007710D9
:10398000B1101F40194025431A40BC014901F710EE
:10399000AC461F40D5012143F2113C0111433211C5
:1039A0001A4021437411D7001C40A2003943B711BB
:1039B0001F401143020CD2B27C001E40214357101D
:1039C000F40196101F401E407601BF013743D61107
:1039D0003743D6101E403601374316111E40F600FD
:1039E000374356111E40B600374396111E401A4009
:1039F00076003743D601624615433A1C32432143D1
:103A00002D0616020F042E433E43070E7810BD10FC
:103A100018401D408201FC106D01F9111C40154336
:103A20003A1120011A400D437C11D1001C4005437E
:103A3000BA11A0001A400D43054351000D431F4029
:103A4000FC012B1C2343A42002493343C2008B50AA
:103A5000F0BDC0460010004070B5A426404AF300F7
:103A6000D2580123D6B27510B0101D401840AC01D9
:103A70004001F510F1111D40204308432C01311184
:103A8000194020437411CD001C40A1002843B511FA
:103A90001D400843110AC9B26C0020434D108C1020
:103AA0001D401C406401AD012543CC112543CC10C1
:103AB0001C40240125430C111C40E40025434C11FB
:103AC0001C40A40025438C111E401C401940F601E7
:103AD000640025433043CC01160CF6B2254329047B
:103AE000B41075101D401C40000608436401A90174
:103AF0000C43F110F51119402C430D0131111940FF
:103B00002C43CD00711119402C438D00B111194087
:103B10001E402C434D00120EF1012C430C43551056
:103B2000011C90101D40184026024001AC01314399
:103B30002043D611D5101D40304316112C011E40D4
:103B4000F500204354111C4028439511A6001D4048
:103B500030436C0013402043DB011843084370BD21
:103B600000100040F0B503220240D200FF23934032
:103B7000DB43184C032829D8174825584E102B40F2
:103B8000235001231F1C0F401E40B601FF01374385
:103B90008E101E4076013743CE101E40360137434B
:103BA0000E111E40F60037434E111E40B60037433B
:103BB0008E1133405E003B1C33431F1CCE11374334
:103BC00025589740391C29432150F0BDA520C0003D
:103BD000D3E7C046001000402405000000B50322D2
:103BE0000240D200FF239340032824D814491548EB
:103BF00041580B40D340DBB20122101C5910184031
:103C000011408901C001084399101140490108433E
:103C1000D91011400901084319111140C900084386
:103C2000591111408900084399110A40520010436C
:103C3000DB11184300BDA5210248C9004158D8E74F
:103C4000240500000010004038B5051C0C1E08D0EB
:103C5000002D0BD0074B00209D605C6002F05AF9EC
:103C600038BD054802F044F8002DF3D1034802F0B6
:103C70003FF8EFE700300020EE020900EF020900F4
:103C8000014B58617047C046E0300020014B586935
:103C90007047C046E030002010B5054AA323DB0082
:103CA000D4580104034820400843D05010BDC046FA
:103CB00000100040FFFFF8FFA320034AC300D158C3
:103CC0004803400F7047C04600100040014B186188
:103CD0007047C046E0300020014B18697047C0466D
:103CE000E0300020014B58607047C046E0300020B3
:103CF000014B58687047C046E030002000B5084AC4
:103D0000084BD0601978022906D05B68002B03D1DC
:103D100090680549086000BD034A1060FBE7C04693
:103D2000E0300020A830002000300020014BD8688F
:103D30007047C046E030002000B5084A084B90604C
:103D40001978022905D05B68002B02D1054908606B
:103D500000BDD26803480260FAE7C046E0300020A8
:103D6000A830002000300020014B98687047C04602
:103D7000E0300020014B58837047C046E0300020FF
:103D8000014B588B7047C046E0300020014B024A7F
:103D9000D05070470C05000000100040024B034A51
:103DA000D058C0B27047C0460C050000001000405B
:103DB00010B51A4B1A4AFF219C588C439C5001287D
:103DC00017D0002802D19958995010BD02281AD056
:103DD000032803D0134801F08BFFF6E79958124CE3
:103DE000084398501148A7211C50CA000020985041
:103DF000EBE79C58204398500C48A72419500C48D6
:103E0000E2009850E1E79C5808492043094C98503B
:103E10005C50A7200849C2009950D6E70010004026
:103E20003405000064030900FFFFFF003C050000AB
:103E300007010000FFFF000021100100024B034AB0
:103E4000D058C0B27047C046340500000010004092
:103E500000B5012818D0002813D1A2231C49DA008C
:103E600088501C4B1C4A1D481A601D491D4A1E4B98
:103E700008601A601D4A1E4B1E481F491A600860E0
:103E800001E0022814D000BDA221114ACB00D0507D
:103E900010491148114A0860114B184812491A601C
:103EA0000860174A124B174813491A600860EAE77E
:103EB000A2220749D300C850064A074807491060A4
:103EC000074B094A104819601060104AD3E7C046F2
:103ED0000010004024170040005000784E000054AD
:103EE0002817004003800C602C17004022647200E9
:103EF000301700403E420F823417004002800C60B1
:103F000011646600DEC08F8208800C6088647200D5
:103F1000A221024ACB00D058C0B270470010004026
:103F200010B5041C0548C368002B02D004490C7569
:103F300010BD044801F0DCFEF8E7C0460030002068
:103F4000C430002097030900014B18767047C04623
:103F5000E0300020014B187E7047C046E030002062
:103F6000014B58767047C046E0300020014B587E28
:103F70007047C046E0300020014B18777047C046BC
:103F8000E0300020014B187F7047C046E030002031
:103F900008B501F067FE08BD38B51349C868437D10
:103FA000002B19D1114C124D124A134800215151C6
:103FB00028C80020ED1A01F06BFE61698D4203D81C
:103FC0000E4801F095FE6169691A0D48012202F060
:103FD0002FFB0023636138BD012000F059FC034C26
:103FE000A2890132A281DEE700300020A830002043
:103FF0001405000000F00140E0300020090609002F
:10400000D15C020038B500F0A9FC1F4C00252561E9
:104010001E491F4D01222A700969A6201D4AC300AE
:10402000D15001F00BFD002822D100F05DFF0128E6
:1040300004D901F0D1F96060002821D0022000F0FD
:104040009FFB002000F024FC01F0F8FC032802D0C4
:10405000114801F04DFE2B78012B02D00F4801F0E2
:1040600047FE0F48022200212A702161E06038BD1E
:1040700001F0E4FC0328E1D00A4801F039FEDDE755
:10408000094801F035FED9E7C4300020E0300020B7
:10409000DC30002000100040300509003C0509001C
:1040A000C1400200280509002305090008B5034B9B
:1040B00005221A70FFF7A6FF08BDC046DC300020BD
:1040C00070B5544C86B060684378DA074ED500234B
:1040D00023608026504BF100504D5A580320287021
:1040E000012A03D04E495A58002A2BD163681E7802
:1040F000202E27D848498123DE008E59494A05A839
:104100008A5801230090311C0120019401F014FA17
:10411000012836D0002830D002284FD0032802D002
:10412000414801F0E5FD3C4B8121C8001E583F4A43
:104130009E502368002B5CD03D4E266104242C70D9
:1041400006B070BD8120344AC300D3580026002039
:104150000021002200230096019601F0EDF966751A
:104160000428E0D0334801F0C3FDDCE701F080FD16
:104170000028ACD000F0F2FBA9E72F4801F0B8FD11
:10418000D1E70598002802D02C4801F0B1FD301C81
:1041900001F056FD002835D029490223C8680021C6
:1041A000827D02A882700370416001814181467066
:1041B000C17000F063FE01226275B4E7059A002A1F
:1041C00024D0301C01F03CFD002817D01C490223EC
:1041D000C868059A817D02A80370467000230126F5
:1041E0004260038143818170C67000F047FE6675AE
:1041F00099E723616375FFF705FFA1E7114801F017
:1042000077FDE3E7104801F073FDC5E70F4801F0C3
:104210006FFDD6E7C430002000100040DC300020E5
:10422000340500000C040000810509002C05000085
:10423000AD4002008A050900750509006F050900F7
:104240000030002079050900700509007805090093
:10425000F0B54F464646C0B4B54C85B06369002BF7
:1042600031D06368002B01D0013B63602278B14DEF
:10427000022A5CD0002B5AD1AF68AF4E3760A178CC
:10428000002900D0ADE0022A00D0B9E0AB4F3A7867
:10429000033A012A00D843E101F040FDA84AA121D8
:1042A000C8008146131C4B441E68904601F020FE56
:1042B000864200D12FE101F01BFE47464F44386093
:1042C000FFF7A0FE9EE002F0ADF90028C9D12378E7
:1042D000012B4FD0022B37D001F020FD6268002364
:1042E000002A01D0531E63602078934E8046914F80
:1042F000022801D0002B3AD0FB683360A278002A54
:1043000019D16178414506D0FEF738FD002800D06C
:1043100087E02578A8464246012A00D1B3E0002A6A
:104320003BD0022A29D0874801F0E2FC44E0EE6845
:1043300081480660A3E7617E002900D07DE005B0DA
:104340000CBC90469946F0BD7C4E01223578033D69
:10435000E9B28A424041C0B20028BDD0754B5968CD
:10436000490861617848012202F062F9E7E7B8681C
:104370003060C3E700F0E8FAEEE7714EA121C80013
:104380003558804601F0B4FD854200D1CAE001F005
:10439000AFFD4346F050FFF735FE00207D6801F089
:1043A00077FC61698D4200D8B0E0691A6648012245
:1043B000002502F03DF965617D7E012DBFD1267893
:1043C000022EBCD060680028B9D1012E00D1F7E0E0
:1043D000002E00D1E1E0022EB1D05C4801F088FC53
:1043E000ADE701F09BFC637E002BA8D002F014F92E
:1043F000012834D002F0F4F8287F00282AD125E0E3
:1044000001F08CFC00206D6801F042FC61698D4276
:104410000ED9691A4C480122002502F009F965619C
:104420008DE700207D6801F033FC61698D42F0D892
:10443000474801F05DFC6169EBE702F0EDF8012807
:104440000DD002F0CDF83F7F002F03D1802701214E
:10445000FA0551600020002601F01AFC666000F0A9
:104460007DFA0023A370637601A800240521017062
:1044700043600381438144708470C47000F0FEFC8B
:104480002E4D2C705BE700F069FA01F0D7FA002896
:1044900066D07B8B002B03D0A189994200D3ABE07F
:1044A00002F0C0F8002800D0A2E0A1222448D300E6
:1044B000C55801F01DFD854202D0E1890131E1813D
:1044C00001F016FD1E4DA122D300E85001F0B6FA0E
:1044D000012807D001F0B2FA022802D01D4801F0ED
:1044E00007FC002000F04CF902F034F91A49F56895
:1044F000A222D300C8506E6818480E5001203D68B3
:1045000001F0C6FB61698D4200D94EE7104801F009
:10451000EFFB616949E73E78002E00D1D0E671E7F4
:1045200069681DE7054A1678002E00D133E734E7A5
:10453000A8300020E030002000300020DC300020D7
:1045400000100040FC030900D15C020016040900C1
:1045500009060900DE05090000F00140140500000D
:1045600000F0C2FC0128C9D92678022E02D060686A
:1045700000285BD001F0F4FC0028BFD13B7E002B6B
:1045800004D101F0D7FC22699042B7D100F05AFD66
:104590000028B3D0FEF7F4FCB0E702F03DF80128A4
:1045A00000D1CCE602F01CF83E7F002E02D1802024
:1045B000C20555600020002501F06AFB6560BEE67B
:1045C00001F03CFA002800D0B9E600F035FD0028E3
:1045D00000D0B4E602F020F8012800D1AFE601F0E7
:1045E000FFFF3F7F002FE5D18023D9054E60E1E733
:1045F000144801F07DFB58E70121002000F086FD02
:1046000000F0DEFEE5898146A68900F0D3FE01AB0D
:1046100041465D8100254A46587019701E819D7083
:10462000DD70181C029200F029FC67E7206901F098
:1046300071FC002001F084FC00F004FD002800D192
:104640005CE7A7E7B304090010B5074C2378012BFA
:1046500002D0064801F04CFB0548064A022300211F
:1046600023700161C26010BDDC3000203C050900F0
:10467000C4300020C140020038B5374980228B6920
:10468000950001338B61354B032404200870C02250
:104690005C51334C02255200A550862500226C0047
:1046A00080251A516C0088251A516C0082251A51F8
:1046B0006C00C1251A51AA0008249C50294C256879
:1046C0002A7D002A18D0A925EA009D58A023264A51
:1046D0008D75DD005159084239D0204B8E204500A0
:1046E00000220121A1205A519961C1001E480425D0
:1046F0004550A921C8001A50802518496B00CA5896
:10470000002A20D18621154A4B00D058002816D106
:104710008022134B50001D58AA0702D5134801F000
:10472000E7FA2368DA68002A01D0904723685C7DA5
:10473000002C03D019680E48084D295038BD0D488B
:1047400001F0D6FAE4E70C4801F0D2FADAE70B48B8
:1047500001F0CEFAC1E7C046003100200010004051
:1047600000E100E01030002000F00140B7020A0034
:1047700004050000B6020A00B5020A00AC020A00F5
:10478000F0B557464E464546E0B4354C354E237D90
:10479000051C00013618002B59D1022D41D9324891
:1047A00001F0A6FA314801F0A3FAC22030490127EE
:1047B000002283007F42C0206275CF5043002D4805
:1047C0000227C7502C4F65703B6818688446A0606C
:1047D00058682261A26132688246E0606260022D00
:1047E00013D8327A80209046820040468850F27A70
:1047F000002A1AD1214A60468850895800292AD0B7
:10480000767AC1221A4F91007E501B7D002B01D079
:10481000022D15D0012161751CBC90469946A24617
:10482000F0BD21780029C0D0BCE7144A504688501A
:1048300089580029E4D1124801F05AFA3B68DFE7B1
:104840000E4E104800270425A7758551E2E70E4853
:1048500001F04EFAA1E70D4801F04AFA3B68CFE7B4
:1048600000310020B43F0300F8020A00DD000A0016
:104870000010004000E100E01030002004050000BE
:1048800005010A0000F00140DB000A0000010A00F7
:1048900070B5224C061C637D6578002B36D0207DD8
:1048A00000282FD10123002223756275022D25D8FF
:1048B0001B4928010A18002E0AD06B1E012B0CD9A7
:1048C00018490868047D002C01D0022D08D070BD65
:1048D000166833606B1E012BF2D8927A2270EFE7D4
:1048E000114E124B9D596A0714D50F4C10480259AE
:1048F000002AECD10F4801F0FBF9E8E70E4801F07F
:10490000F7F9DDE70D4801F0F3F9CBE70C4801F0CA
:10491000EFF9C4E70B4801F0EBF9E6E700310020BE
:10492000B43F0300103000200405000000F00140F7
:104930000010004041010A003A010A0022010A0069
:1049400021010A0040010A008220034A4300D05896
:1049500001384342584170470010004070B55D4A2D
:1049600002218023D15001245B4BC2206642850086
:10497000C0245E516000802688241150B5000020BC
:10498000610058510122585054491A610B78012B8B
:1049900045D0023BC046C046C046C046C046C046A1
:1049A000C046C046C046C046C046C046C046C046D7
:1049B000C046012B23D9484A882380265D00B400D5
:1049C00000230120C22653510B7013514442B00002
:1049D0001450C0263F480224760084518626760073
:1049E000935103264E7080267600935182265351B0
:1049F000750053514B600B754B75046070BDC0461C
:104A0000C046C046C046C046C046C046C046C04676
:104A1000C046C046C046C046C046C046CBE7C046BA
:104A2000C046C046C046C046C046C046C046C04656
:104A3000C046C046C046C046C046C046C046C04646
:104A4000C046C046C046C046C046C046C046C04636
:104A5000C046C046C046C046C046C046C046C04626
:104A6000C046C046C046C046C046C046C046C04616
:104A7000C046C046C046C046C046C046C046C04606
:104A8000C046C046C046C046C046C046C046C046F6
:104A9000C046C046C046C046C046C046C046C046E6
:104AA000C046C046C046C046C046C046C046C046D6
:104AB000C046C046C046C046C046C046C046C046C6
:104AC000C046C046C046C046C046C046C046C046B6
