:020000021000EC
:10F000000040002049F4010029F4010029F4010026
:10F0100000000000000000000000000000000000F0
:10F0200000000000000000000000000029F40100C2
:10F03000000000000000000029F4010029F4010094
:10F0400029F40100D931020029F4010029F401005A
:10F0500029F401000000000029F4010029F4010056
:10F0600029F4010029F40100FD4D020029F40100FA
:10F0700029F4010029F4010029F4010029F4010018
:10F0800029F4010029F4010029F4010029F4010008
:10F090009D350200B10A0200890A020029F401002C
:10F0A00029F4010029F40100000000000000000024
:10F0B0000000000000000000000000000000000050
:10F0C00010B5064C2378002B07D1054B002B02D03E
:10F0D000044800E000BF0123237010BD2C2900204C
:10F0E0000000000048150300084B10B5002B03D0AA
:10F0F0000749084800E000BF07480368002B00D11B
:10F1000010BD064B002BFBD09847F9E7000000002C
:10F1100030290020481503004815030000000000B6
:10F1200010B5024801F0D2FA10BDC0464C290020AB
:10F13000A12370B500220125084CDB006560A560A5
:10F14000E250D12202239200A350403AA350044936
:10F15000112001F0E5FA256070BDC04600100140A5
:10F160007D07020010B5FFF7E3FF10BD044B054A11
:10F17000D050054B1A78012A01D101321A7070471C
:10F180001C05000000200040482900200022014BFF
:10F19000DA607047FC2000400022014B1A62704781
:10F1A000FC200040902201230749D200885830B546
:10F1B000184001D08B5004E004248D58254201D022
:10F1C0008C50180030BDC0460020004070B5074C80
:10F1D000200001F0DDF9064D280001F0D9F92A00E0
:10F1E0002100044801F02CFA70BDC04668290020B7
:10F1F000B02900204C29002070B50E4C2378002B3C
:10F2000017D00D4801F006FA01230C4E0025F360DB
:10F210007360A023DB00F550022001F08BFAA022DE
:10F220000C21074BD205F358C133FF339B00995093
:10F23000257070BD482900204C2900200020004086
:10F240000C05000010B50100014801F01DFA10BDC9
:10F250004C290020F7B504005A4807780190002F88
:10F2600000D0ADE01500A026C135FF355648F605A3
:10F27000AD00A8510D00C135FF35AD00AF51534D64
:10F28000534EAA51534AA9509622120294425DD07D
:10F2900029DC96229201944252D00EDC9622120171
:10F2A000944248D096225201944247D09622D200EE
:10F2B000944256D19E23DB0253E09622D20194421F
:10F2C00040D006DCE122920194424AD1EC239B0318
:10F2D00047E0E122D201944236D03F4A944240D1E5
:10F2E00080231B043DE0E1229202944234D00DDCE5
:10F2F0009622520294422BD0E1225202944229D00B
:10F30000E122120294422CD1344B2AE0E122D202B3
:10F31000944223D005DC324A944222D18023DB047C
:10F320001FE0E122120394421AD02E4A944218D1CF
:10F3300080235B0515E09D231B0312E02A4B10E0A0
:10F340002A4B0EE02A4B0CE02A4B0AE02A4B08E03D
:10F350002A4B06E02A4B04E02A4B02E02A4B00E04D
:10F360002A4B2B4A8421AB50A0230422DB00EA5015
:10F370000022284B0126DA601A62C1229200AB58A3
:10F3800002200B43AB50019B23491E7001F0C8F9CA
:10F39000224BAE601B782E60002B11D1204A1268E0
:10F3A000002A0DD096229201944209DD1D4A5C1C70
:10F3B000D05C002803D0FFF745FF2300F6E7FEE707
:10F3C000F7BDC0464829002001030000002000408E
:10F3D0000C05000014050000127A000000F0EB009C
:10F3E00090D0030040420F0000B0130000502700EF
:10F3F00000A04E0000F0750000509D0000903A0102
:10F4000000E0D70100B0AF0300705F07A4DFBE0EBD
:10F4100024050000FC20004021F1010049290020C2
:10F42000442A0020A45A0200044B10B55B68044A29
:10F43000DB055B0D9B58984710BDC04600ED00E012
:10F4400004200020FEE700000E480F4970B58842F6
:10F4500002D000230D4C03E00D4B0E4A002106E0C4
:10F46000CA18A242F8D2C55804331560F8E793428F
:10F4700001D202C3FBE705F09BFD00F00DF801F09F
:10F4800065F9FEE748150300002000202C29002024
:10F490002C290020682E0020064B1B681B061B0F22
:10F4A000012B06D1044A054B1A608022044B12023C
:10F4B0001A607047E80F00F0DFFF07C00405004046
:10F4C000186C0040F0B5490887B0520003928A00DA
:10F4D000049200224C1C0294160004008D1E01931D
:10F4E0000595059B9E4223D8964211D29500451959
:10F4F0002B6827682360049B2F60E7187B689C4675
:10F50000029BD518AD0045192B687B6063462B60C4
:10F51000521892008218136865686360019B156039
:10F52000019D1A88039B0236EB1801930834D8E733
:10F5300007B0F0BD10B5C3708023184C0180446043
:10F5400082705B0099421AD007D810291CD040293C
:10F5500020D18181C181124B19E08023DB009942C7
:10F5600008D080235B01994214D101238381C38198
:10F570000C4B0CE004238381C3810B4B07E0102369
:10F580008381C381094B02E08381C381084B83607F
:10F59000002001E00120404210BDC0464ADB0200CD
:10F5A000C80B03004A0B0300500B0300680B030059
:10F5B000480D03000F220123013A5B00002AFBD112
:10F5C000002803DD013B984204DD02E05B429842E3
:10F5D00000DA18007047F0B5A7B00C938B080293BF
:10F5E0000300023301930C9B0792DB0016930C9BE4
:10F5F0000C9A9B0015930C235A431492029A019F74
:10F60000D2000B92029A0F9092000692029A1391E6
:10F610005A43079B049009930A930893029B05920F
:10F6200003900D93039B0B9A00255D5F039BAD1028
:10F630009B5E9B10E8180E93FFF7BCFF03B210937C
:10F640000023FC5E0B9BA410FE5EB610A019FFF712
:10F65000B1FF03B211930E9BE81AFFF7ABFF0E90B8
:10F66000A01BFFF7A7FF039B069A1290985E059ACE
:10F67000039B80109B5E9B10C018FFF79BFF069BAF
:10F6800005B2F85E059B8010FB5E9B10C018FFF76B
:10F6900091FF109B04B25A106B10D318039A138079
:10F6A000119B5A106310D3183B80109B581BFFF717
:10F6B00081FF119B0600181BFFF77CFF089B069932
:10F6C00000229B5E039A9C46525E089B0699022587
:10F6D0005D5F921003B2109260467C5E190036B2F4
:10F6E00070436943069A411803980914815262468F
:10F6F000754353435D1B069B2D14FD520300059A71
:10F70000A410985E109B8010181AFFF753FF059BFA
:10F710000600F85E36B28010201AFFF74BFF6B46EA
:10F7200038229B5E05B2581B0E93FFF743FF482219
:10F730006B469B1800241C5F1090A019FFF73AFF3E
:10F740000E9B11905819FFF735FF0500A01BFFF71E
:10F7500031FF0A9B00B20221595E0A9B2DB20022A2
:10F760009B5E04002A004C435A4358434D430B9E72
:10F77000A218039C1214451BA2532D14099BBD53C0
:10F780000221595E44226B469B1800241C5F099B92
:10F79000402000229B5E6A4612180020105E250061
:10F7A00002004D435A4341436343591A0D9BAA1823
:10F7B000039D059E013B12140D932B00AA53169A2C
:10F7C000043394460393159A089B091463449446A2
:10F7D0000893149A0A9BB953634494460A93099B6D
:10F7E0000437634409930D9B002B00D01AE70C9B50
:10F7F0009B000893029B1193029B9B080593119B0E
:10F80000042B00D828E1089B089A9B001C93089BB6
:10F81000DB001D930C2353432093029B059A9B000E
:10F820001B93059B9B000693059BDB0009930C2310
:10F8300053431293079B0E930D930C930F9B0B93C3
:10F8400000230A931300013B2493069B0233259364
:10F850000A9B249A934200D9F5E00C9B00229B5E00
:10F8600014930C9B02229B5E15930D9B00229B5EC2
:10F8700016930D9B02229B5E17930E9B00229B5EAC
:10F8800018930E9B02229B5E0B9A199394461600C6
:10F89000259B634403930A9B1093179B5B42219320
:10F8A000159B5B422293199B5B422393109B139AF7
:10F8B000934200D3B1E0069A039B9B5E1A93002308
:10F8C000F55E099BF75EE819FFF774FE0223F45E0C
:10F8D0001A9B1E90E018FFF76DFE1F90E81BFFF7C4
:10F8E00069FE1A9B0700E01AFFF764FE099A039B62
:10F8F0001A909D5E069B3FB2F05E129B7F10F35EF6
:10F90000C018FFF757FE039B04000020185E24B2C6
:10F910004019FFF74FFE78226B469B180021595E75
:10F920006B4604329B1800229B5E49105A106410EB
:10F9300003B258100B195B10338013185B107380DF
:10F94000131A069A0C1BB25E039900254D5F169898
:10F950001799604359434118069809143152219967
:10F960004C4316994B430399E3181B140B800B006F
:10F9700009995B5E1E93129BF05E101AFFF71AFE48
:10F980001E9B0400E81AFFF715FE68216B465B1802
:10F9900000255D5F24B264106D10A3B2ADB21A935E
:10F9A000E91A159B09B24B439C4600B24010BAB20B
:10F9B00080B21418149F24B26743099B67443F1414
:10F9C000F752229B121A5C43149B19985943039BCC
:10F9D0006418069924145C521A9B1899EB181BB2F0
:10F9E00012B25843514341181298091431522399C5
:10F9F0004A4318994B43D218039B099912145A523F
:10FA0000029A109B94461B9A6344944610931B9B46
:10FA1000F618039B6344039348E71C9A0A9B944699
:10FA200001330A930B9B1D9A04330B930C9B634485
:10FA300094460C93209A0D9B634494460D930E9B21
:10FA400063440E9304E7089B9B000893119B9B085B
:10FA50001193059B0293CFE6029B059A9B000893A6
:10FA6000059BDB000793059B9B0006930C235A43E1
:10FA7000002303920593029A139B9B1A0C93059BF8
:10FA80000C9A934200D986E0079A019B9E5E049BE4
:10FA900000255D5F049B9F5EE819FFF78BFD019BCE
:10FAA000099000241C5FA019FFF784FD0A90E81B51
:10FAB000FFF780FD0700A01BFFF77CFD019B069A66
:10FAC0000B909E5E019B039A3FB29D5E049B069A3B
:10FAD0007F10985E039A049BBFB29B5EC018FFF72D
:10FAE00069FD04007019FFF765FD6B4624229A5EDC
:10FAF00024B2521064100499A4B292B213190B806C
:10FB00006B4628215B5E00B25B1040109BB280B256
:10FB1000019D191829800499069D069E495F019D43
:10FB2000121BAD5F049C069E181A019BA253039AF8
:10FB300098539E5E2300985E081AFFF73BFD040071
:10FB4000A81BFFF737FD00B24010049A079980B256
:10FB50003B1853526B462C229B5E24B25B10641000
:10FB60009BB20199A4B2079D1A1B4A53049A0399A8
:10FB70003F1A5752029A1C199446019B089A5C52EC
:10FB8000059B634494460593049B63440493019B43
:10FB90006344019373E727B0F0BDF0B5A3B00B93B6
:10FBA0008B0801930300023300930B9B0692DB004A
:10FBB00015930B9B0B9A9B0014930C235A4313929F
:10FBC000019A009FD2000A92019A0E90920005922B
:10FBD000019A12915A43069B039008930993079345
:10FBE000019B049202900C93029B0A9A00255D5F90
:10FBF000029BAD109B5E9B10E8180D93FFF7DAFC9B
:10FC000003B20F930023FC5E0A9BA410FE5EB610A5
:10FC1000A019FFF7CFFC03B210930D9BE81AFFF772
:10FC2000C9FC0D90A01BFFF7C5FC029B059A119023
:10FC3000985E049A029B80109B5E9B10C018FFF791
:10FC4000B9FC059B05B2F85E049B8010FB5E9B101F
:10FC5000C018FFF7AFFC0F9B04B25A106B10D318FB
:10FC6000029A1380109B5A106310D3183B800F9B8D
:10FC7000581BFFF79FFC109B0600181BFFF79AFC10
:10FC8000079B059900229B5E029A9C46525E079B49
:10FC9000059902241C5F921003B20F9218007D5E3A
:10FCA000614636B260437143059A091A02980914F5
:10FCB0008152624674435343E418059B2414FC525A
:10FCC0000300049AAD10985E0F9B8010181AFFF77E
:10FCD00071FC049B0400F85E24B28010281AFFF720
:10FCE00069FC6B4634255D5F03B2E8180D93FFF79E
:10FCF00061FC44226B469B1800269E5F0F90301BD0
:10FD0000FFF758FC0D9B1090E81AFFF753FC050015
:10FD10003019FFF74FFC099B2DB20021595E099B5A
:10FD200000B202229A5E04002B0054434B43484326
:10FD300055430A9E1B1B029C1B142D18A3532D1404
:10FD4000089BBD530020185E6B463C241C5F089B3B
:10FD500040220221595E6B469B1800229B5E2200C6
:10FD60001D0042434D4343436143521B049E029D89
:10FD7000CB1812141B14AA53BB530C9B159A013BAE
:10FD80000C932B0094460433149A0293079B043778
:10FD9000634494460793139A099B634494460993DA
:10FDA000089B634408930C9B002B00D01CE70B9B23
:10FDB0009B000793019B1093019B9B080493109B4E
:10FDC000042B00D81DE1079B079A9B001B93079B00
:10FDD000DB001C930C2353431F93019B049A9B004D
:10FDE0001A93049B9B000593049BDB0008930C2350
:10FDF00053431193069B0D930C930B930E9B0A9305
:10FE0000002309931300013B2093059B02332193A8
:10FE1000099B209A934200D9EAE00B9B00229B5E4B
:10FE200013930B9B02229B5E14930C9B00229B5E00
:10FE300015930C9B02229B5E16930D9B00229B5EEA
:10FE400017930D9B02229B5E0A9A18939446150005
:10FE5000219B63440293099B0F930F9B129A934239
:10FE600000D3AFE0059A029B9E5E0022AB5E199321
:10FE7000089BEF5E199BD819FFF79CFB0223EC5EF1
:10FE80001D90A019FFF796FB199B1E90D81BFFF73A
:10FE900091FB0700A01BFFF78DFB089A029B1990AE
:10FEA0009E5E059B3FB2E85E119B7F10EB5EC01823
:10FEB000FFF780FB029B04000020185E24B280192B
:10FEC000FFF778FB74226B469B180021595E641083
:10FED00049100B195B102B806B4604329B180022D3
:10FEE0009B5E0C1B5A1003B2581013185B106B80EA
:10FEF000131A059AAA5E02990020095E1D911599B0
:10FF0000169861435843091A0598091429521699FD
:10FF10004C4315994B430299E3181B140B800B00BB
:10FF200008995E5E119BE85E101AFFF743FB1D9B6C
:10FF30000400981BFFF73EFBBBB29C4664216B4656
:10FF40005B1800215B5E614602B224B252105B1066
:10FF5000641092B29BB2A4B2881A139E1919149F0E
:10FF600000B209B24F434643F61B089F3614EE53C6
:10FF7000149E62447043139E1B1B7143059E4018E0
:10FF80000299001488531799189812B21BB258435B
:10FF90005143091A11980914295218994A4317997B
:10FFA0004B43D318029A1B14D3530F9B019A9446C8
:10FFB0001A9A634494460F931A9BED18029B63446C
:10FFC00002934AE71B9A099B9446013309930A9BC3
:10FFD0001C9A04330A930B9B634494460B931F9A19
:10FFE0000C9B634494460C930D9B63440D930FE765
:10FFF000079B9B000793109B9B081093049B019306
:020000022000DC
:10000000DAE6019B049A9B000793049BDB000693AE
:10001000049B9B0005930C235A43002302920493F4
:10002000019A129B9B1A0B93049B0B9A934200D943
:1000300086E0069A009B9E5E039B00255D5F039B06
:100040009F5EE819FFF7B6FA009B089000241C5F3A
:10005000A019FFF7AFFA0990E81BFFF7ABFA07000A
:10006000A01BFFF7A7FA009B059A0A909E5E009BD3
:10007000029A3FB29D5E039B059A7F10985E029A9A
:10008000039BBFB29B5EC018FFF794FA040070197F
:10009000FFF790FA6B462021595E24B24910641094
:1000A000A4B2039A89B20B1913806B4624229A5E7C
:1000B00003B252105B1092B29BB2009DD018288000
:1000C0000398059D059E405F009D091BAD5F039C45
:1000D000059ED31A009AA15393531300029A9E5E71
:1000E000A35EC01AFFF766FA0400A81BFFF762FAC6
:1000F00000B24010039A069980B23B1A53526B46E5
:1001000028229B5E24B25B1064109BB20099A4B2BB
:10011000069D1A194A53039A029938185052019AA7
:100120001C1B9446009B079A5C52049B63449446B4
:100130000493039B63440393009B6344009373E71E
:1001400023B0F0BD70B5040008001104184A0D0C6E
:100150002261184A490C6261DAB2049B256063721D
:100160008023616022729B009D4210D003D84023FF
:10017000802D0DD00FE080231B019D4205D08023F0
:100180009B019D4207D1012302E0042300E01023DC
:10019000E360002501E001256D42A06189B20123E1
:1001A000002A00D01A00FFF7C5F9280070BDC0462C
:1001B0004A5B02004A9B0200F0B58FB00691159988
:1001C000149F89008C46944462465B189C46031D2C
:1001D000019202933A4A069B04919B189B00079355
:1001E000C3180393069BDB00FE1801230593059BB0
:1001F000069A0437043E93424FD2029B00229B5E34
:100200000893019B089C00229B5E09935C43029B20
:1002100002229B5E019A0221525E0A925A43A21A5E
:100220000D92039A0021525E0B9262460021525EAB
:100230000C92039A0C9C0225555F62460221515E86
:100240000B9A62430D9C14190A006A43A2180B9C76
:10025000D21361430C9C12B26543099C491B634352
:100260005918029B3A8004330293039B043B039387
:10027000089B0A9C63435B18DB137B803280049AE3
:100280005B4273806346944663449C461300019A24
:10029000D3180193059B0133A8E7149A418894462B
:1002A000079B02886344521A9A800022DA800188F0
:1002B0004388CB1861460B804A800FB0F0BDC04622
:1002C000FFFFFF3FF0B5070088008BB038180190A2
:1002D00011988000089010988446002943D0019816
:1002E00001390024005F0290029D0024185F0390F2
:1002F000454301980224005F04900224185F059092
:10030000059C04986043281A09900024385F022451
:10031000165F06900024105F0790079D0224385F47
:10032000069C04376C43099D6519340044432C191D
:10033000079DE4136843069D6E43059D801B029E46
:100340006E43019D801B043D01956546039E2C80F4
:10035000049C6643861BF6136E8008981B181218BF
:1003600004208444B9E70BB0F0BDF7B5037A04006C
:100370000E0017008569012B18D1C3680092019304
:100380004369026941683000FFF79CFFAB89298807
:100390006A683800FFF701FC637A012B1ED1EA89F5
:1003A0002988AB683800FFF78DF817E0AB892988FA
:1003B0006A683000FFF70FF9637A012B05D1EA89EB
:1003C0002988AB683000FFF77DF8E3680097019358
:1003D0002269636961683000FFF7EEFEF7BD000037
:1003E0000122044B1A6004230360002343608360EE
:1003F0007047C046482A002010B50248FFF7F0FFBA
:1004000010BDC046F8290020F0B5012600251027B0
:100410000400124B85B01E60114B05730360114B35
:100420003A004360104B11498360684605F0A2F81A
:1004300020003A0069460D3005F09CF8C522E31C07
:10044000E5832584DA77502363624C3BA362230063
:1004500020002C331E7005B0F0BDC046402A00209D
:10046000451403005A130300621303004A130300E8
:1004700010B50248FFF7C8FF10BDC046042A00208F
:10048000F8B507000C0000258E18B44207D03B6871
:1004900021781B683800984701342D18F5E72800AB
:1004A000F8BD70B505000C00081E07D005F0FCF87B
:1004B0002B6802005B6821002800984770BD10B5CA
:1004C000FFF7EFFF10BD10B503681B68984710BD1C
:1004D00070B50D210400FFF7F6FF0A21050020008A
:1004E000FFF7F1FF281870BDF0B58BB06B46150013
:1004F0000022053306000F00DA77012D00D80A2507
:1005000009AC2900380004F0C7FC01006943791ADE
:10051000C9B20B003733013CDBB2092901D83031B5
:10052000CBB22370071EECD121003000FFF7B9FFDA
:100530000BB0F0BDF8B506000C00151E04D1036821
:10054000C9B21B68984714E0D2B20A2D0DD12A0017
:1005500000290ADA2D21FFF7B6FF614207002A00C1
:100560003000FFF7C1FF381803E021003000FFF72B
:10057000BBFFF8BD10B5FFF7DDFF10BD70B505007E
:10058000FFF7D8FF04002800FFF7A2FF001970BD95
:1005900010B540220021040005F02AF800232000B5
:1005A0002364636410BD3F22036C01331340426C2B
:1005B000934202D0026C815403647047012070475B
:1005C00010B503680022DC690123A04710BD026951
:1005D000136C506C40331B1A3F201840704703695E
:1005E000196C5A6C914202D05A6C985C01E001205F
:1005F000404270470369196C5A6C914207D03F2101
:100600005A6C985C5A6C01320A405A6401E001202D
:1006100040427047037E002BFCD1704710B50400A8
:1006200008001100002222761A00FEF713FE10BD0A
:1006300010B50400FEF7E0FD23695A6C1A6410BD82
:1006400000234360FA239B008360034B016108335E
:10065000036042617047C0460C140300436910B543
:10066000196C5A6C914202D1002303760AE00122F0
:100670003F2102765A6C985C5A6C01320A405A64E7
:10068000FEF774FD10BD00000E4B70B51B78040022
:10069000002B15D0402640690B4D7642036C426C0E
:1006A00001332B4002D5013B334301339342F5D054
:1006B000FFF779FF237E002B02D12000FFF7CEFF4A
:1006C000012070BD482900203F000080114B70B50B
:1006D0001A6A05001C00002A04D0FEF75DFD280000
:1006E000FFF7BCFFE368002B12D0FEF74FFDA323FA
:1006F000094ADB00D458FEF755FD002808D1E1B2C5
:100700002869FFF750FF054B002B01D000E000BF28
:1007100070BDC046FC2000400020004000000000EA
:1007200010B5034B82001B68D15000F045F910BD95
:100730000020002010B5040000F05EF90022024BFA
:10074000A4001B68E25010BD0020002010B5FEF789
:1007500009FD00F0EFF800F0C1F8FCE7054B0200DE
:100760001968002901D104491960186882181A60B3
:100770007047C046342A0020682E00200C4B30B54C
:100780009A68002A11D0802000210A4A4004146887
:10079000556800196941106051601468556820005F
:1007A000E9B21060516000229A6000225A6430BDA4
:1007B000FC100140382A00200300914206D002D9E3
:1007C0008A1AD34002E00300521A9340180070477F
:1007D000421E030070B50020052A43D88025581C0E
:1007E0002149224B0A781B786D008540204C214816
:1007F0009200012B0CD1204B1B781B041A43FF23C2
:10080000110022221B020A431D402A43025108E024
:100810005B01134302221343FF22120215402B43B4
:1008200003510122C223002152429B00C250F933DE
:100830000232FF33C250114B596002605A680D4DAD
:10084000002AFBD0A123DB00E8580D4B0A211A68CF
:10085000FFF7B2FFA0230022DB00EA5001236B6008
:1008600013332B5170BDC046C4200020C52000208A
:100870000405000000700040C6200020FC7000400D
:10088000C82000208020F0B580008FB004F0B4FBB9
:1008900005008020800004F0AFFB2C0006006F1CD8
:1008A000FF370D4B1868FFF793FF0023208063800C
:1008B0000434BC42F5D1009303A9802207A8FFF7B6
:1008C00041FC3200290007A8FFF74FFD280004F083
:1008D0009DFB30000FB0F0BDCC200020F8B5FFF735
:1008E000D1FF01240700851C0022AB5E0A2B13DD1B
:1008F0000D4E0E493000FFF7E2FD0A2221003000C4
:10090000FFF738FE0A493000FFF7D9FD0023E95E02
:100910000A223000FFF732FE01340235802CE3D189
:10092000380004F073FBF8BD4C2900203C14030090
:1009300041140300E12110B549020248FFF740FECF
:1009400010BDC0464C29002023DF704724DF7047CC
:1009500028DF704770B58901002815DAC0B20F236F
:100960000340083B124A9B089B009B18032210403F
:10097000FF24C200DD69201C904085430C40944058
:100980002A1C2243DA6112E082080A4B03249200F7
:10099000D2182040C023A0409B00FF24D558261C1D
:1009A0008640B5430C408440281C2043D05070BD85
:1009B00000ED00E000E100E00D4B10B51B68041CE9
:1009C000002B08D044B2201C0121FFF7C1FF201CDE
:1009D000FFF7BAFF0AE040B20121FFF7BBFF1F2378
:1009E0001C400123A3401C1C024B1C6010BDC046D0
:1009F000442A002000E100E008B5084B1B68002BEA
:100A000003D040B2FFF7A2FF06E01F2318400123E6
:100A10008340181C024BD86708BDC046442A0020FA
:100A200004E100E0BFF34F8F024A034BDA60BFF3EB
:100A30004F8FFEE70400FA0500ED00E008B5FFF770
:100A4000F1FF50DF7047000013B50B4B0B4C6946AC
:100A50001B88063120680B80FFF7F3FF05280AD0BA
:100A6000002803D05F21064AFFF7E8FF054B206806
:100A70001B689847E9E713BD542A0020582A002034
:100A800046140300502A002008B5074B1B68002BB2
:100A900007D09847002806D07121044AFFF7CEFFFF
:100AA00001E0FFF7D1FF08BD4C2A002046140300E7
:100AB00008B5054B01201A7850401870034B1B688D
:100AC000002B00D0984708BD602A00205C2A002037
:100AD00010B58CB00191202304A903AA041C039330
:100AE00000F09CF900280AD0064B002B07D001AB80
:100AF0000222995EE0B204AA039B00E000BF0CB0A2
:100B000010BDC0460000000000B500238DB0C9B282
:100B10000192039399420BD10A4B002B10D06B46E4
:100B20000621595E082004AA039B00E000BF07E0ED
:100B3000202304A903AA039300F070F90028EBD145
:100B40000DB000BD0000000082B002B070477047D9
:100B5000F0B5474680B488B0071C031C040C050A96
:100B60003F0E01900291081C161C111C0392DBB26F
:100B70000022A446B84605920F0C06920792EDB2E9
:100B8000041C052B06D9284803F002FC08B004BC5D
:100B90009046F0BD254A990050588746244803F0F6
:100BA000F7FBF3E7FFF7D3FFF0E768466346C6823B
:100BB0005EB242460783774202754783201C01F0EC
:100BC00061F8281C0599069AFFF79EFFDEE7194990
:100BD0000B68587E002802D1174803F0D9FB201C6F
:100BE00001F050F86A46D6821783281C0599069AA8
:100BF000FFF7AAFFCAE761464BB207A842465E422A
:100C0000474602704680002F04D0002C07D0201CDD
:100C100001F038F8281C0799FFF75AFFB6E7074894
:100C200003F0B6FBF3E7C0469E03050088140300FB
:100C30009B030500642A00207E0305008C03050049
:100C4000F8B5354C354D0023061C2B7063603448D5
:100C500000F034FD2060002821D0324B427E19681C
:100C6000002A20D1481E0F2851D8181D01F03CFB46
:100C700027687B7E0127002B15D1002E3CD1012057
:100C800000F0ACFF2672042001F056FB2168487E7C
:100C9000002812D002272F70012001F091FC0123BF
:100CA0002B700020F8BD02262E700027042001F0D2
:100CB00043FB2168487E0028ECD1002001F094FC21
:100CC0002668737E002BE5D1002001F0AFFB206881
:100CD000427E002ADED1012001F00AFC21684C7E10
:100CE000002CD7D1002001F097FC012001F068FC16
:100CF0000120002FD6D1D2E7012E03D005222A7081
:100D00000027D3E7022000F069FF2672BBE7072126
:100D100029700027B1E7C046642A0020E02A00209D
:100D2000510B0200D020002008B506480368002BB4
:100D300003D000F0A7FE012008BD034902220A707B
:100D40000020F9E7642A0020E02A00200148036817
:100D5000587E7047642A002008B500F037FF00284D
:100D600002D0FFF7F4FE08BD00F0ECFEFBE7C04642
:100D7000F8B5041C0D1C161C072811D800291ED01C
:100D8000202A04D9234D06242C700020F8BD00F041
:100D9000E5FF022809D91F4F09263E700020F5E71C
:100DA0001C4B04221A700020F0E7201C00F0DAFF30
:100DB000022809D9174B0A221A700020E6E71549C4
:100DC000032008700020E1E700F0D0FF01281CD9C3
:100DD00000F04EFF4278012313434370071C067056
:100DE000291C321C023004F0C5FBE0B2391C00F0B3
:100DF00053FF041C0120002CC8D1074803F0C8FA97
:100E0000044E0F2535700020C0E702490820087005
:100E10000020BBE7E02A0020DA00050070B5041CC2
:100E20000D1C161C00F09EFF00280DD0002D0FD0C9
:100E3000201C00F085FF326803789A420DD2134DD2
:100E400006242C70002070BD104B0B221A70FAE79C
:100E50000E49032008700020F5E7201C00F066FF13
:100E6000041E0AD02278A11C3260281C04F082FBE8
:100E7000201C00F007FF0120E5E7054803F088FA91
:100E800002480F2606700020DDE7C046E02A002059
:100E90000201050008B5072804D9044B04221A7082
:100EA000002008BD00F05AFFFBE7C046E02A002002
:100EB00008B5072802D800F055FF08BD024B0422F0
:100EC00001201A704042F8E7E02A002008B500F03F
:100ED0004DFF0623181A08BD38B5041C072805D98C
:100EE0000B4B04221A700025281C38BD00F036FF79
:100EF00000250228F8DC201C00F034FF0228F3DC77
:100F000000F034FF01218142AD416D42ECE7C04663
:100F1000E02A002008B50B4A11684B7E002B0BD14C
:100F2000072804D9084A04211170002008BDC0B266
:100F300000F020FF0120F9E7034B0C20187000207F
:100F4000F4E7C046642A0020E02A002008B50728FC
:100F500004D9054B04221A70002008BDC0B200F06D
:100F600025FF0120F9E7C046E02A002038B50F4CE4
:100F7000051C2068437E002B0ED1002D06D0012DCC
:100F80000FD00B4D05242C70002038BD012000F03F
:100F900025FE25720120F8E7054902220A7000208B
:100FA000F3E7022000F01AFEF3E7C046642A0020AF
:100FB000E02A0020014B187A7047C046642A0020BE
:100FC00010B50C1C1249031C0868427E002A14D17B
:100FD000621E0F2A0CD8002B14D00E48191C221C9C
:100FE00010C004F0C7FA211C01F07EF9012010BDE9
:100FF0000949072008700020F9E7074B02241C70FC
:101000000020F4E7044B03241C700020EFE7C046E7
:10101000642A0020D0200020E02A002010B50C4CCB
:101020000B682268934209D3102B07D800280AD0F6
:101030000A60211D04F09EFA012003E0054B0722FF
:101040001A70002010BD034C03212170FAE7C0463E
:10105000D0200020E02A0020014B18687047C046CD
:10106000D020002008B5074A11684B7E002B04D021
:10107000054B02201870002008BD00F0A1FE0120E1
:10108000FAE7C046642A0020E02A002008B500F0F4
:1010900021FF08BD08B5074A11684B7E002B04D01C
:1010A000054B02201870002008BD00F09BFF0120B6
:1010B000FAE7C046642A0020E02A002008B501F0C3
:1010C0001BF808BD08B50A4B1A68537E002B0AD1DD
:1010D000072804D9074B04221A70002008BD01F02C
:1010E00091F80120FAE70349022008700020F5E793
:1010F000642A0020E02A002010B50C1C072806D81E
:10110000002909D001F0BAF82070012010BD054B6C
:1011100004221A700020F9E7024903200870002019
:10112000F4E7C046E02A002008B5074A11684B7E64
:10113000002B04D0054B02201870002008BD01F0E0
:1011400015F90120FAE7C046642A0020E02A0020B1
:1011500008B501F011F908BD08B50E4A11684B7EBB
:10116000002B12D101280AD00223002808D0012325
:10117000022805D0084A0E211170002004E0002347
:10118000181C01F0B5F9012008BD034B02201870AE
:101190000020F9E7642A0020E02A002008B501F0C9
:1011A00007FA0023012801D8014B1B5C181C08BD5D
:1011B000BC14030008B5134A11684B7E002B0AD1FA
:1011C000062804D9104B0E211970002007E00F4AA1
:1011D000800011588F460C4B02201870002008BD6B
:1011E000002001F023F90120F9E70420F9E7EC20C1
:1011F000F7E7F420F5E7F820F3E7F020F1E7FC202B
:10120000EFE7C046642A0020E02A0020A014030073
:1012100008B501F013F9031C0520F02B0AD00AD9F8
:101220000320F82B06D00220FC2B03D00420F42B43
:1012300000D0012008BD0020042BFBD00620EC2BA1
:10124000F8D00120F6E7C04608B5074A11684B7E82
:10125000002B04D0054B02201870002008BD01F0BF
:1012600091F80120FAE7C046642A0020E02A002015
:1012700008B501F08DF808BD08B5074A11684B7E26
:10128000002B04D0054B02201870002008BD01F08F
:1012900047F80120FAE7C046642A0020E02A00202F
:1012A00008B501F043F808BD08B5074A11684B7E40
:1012B000002B04D0054B02201870002008BD01F05F
:1012C0008BF80120FAE7C046642A0020E02A0020BB
:1012D00008B501F099F808BD08B5074A11684B7EBA
:1012E000002B04D0054B02201870002008BD01F02F
:1012F00055F80120FAE7C046642A0020E02A0020C1
:1013000008B501F063F808BD08B5074A11684B7EBF
:10131000002B04D0054B02201870002008BD01F0FE
:1013200079F80120FAE7C046642A0020E02A00206C
:1013300008B501F075F808BD08B50D4A11684B7E77
:10134000002B0ED10023002804D1181C01F04CF909
:10135000012008BD012809D0064A0E211170002085
:10136000F7E7044B022018700020F2E70123ECE7B6
:10137000642A0020E02A002008B501F03BF901387A
:101380004342584108BDC04608B50D4A11684B7E1E
:10139000002B0ED10023002804D1181C01F03CF9C9
:1013A000012008BD012809D0064A0E211170002035
:1013B000F7E7044B022018700020F2E70123ECE766
:1013C000642A0020E02A002008B501F02BF901383A
:1013D0004342584108BDC046014B18787047C0468B
:1013E000E02A0020014B00221A707047E02A0020FA
:1013F000014B58687047C046642A0020014B002208
:101400005A607047642A00200249034B0F220A7079
:1014100058607047E02A0020642A002070B5274BEE
:10142000274A0024D45086B001F0E8FD254D264E11
:101430002C606C602C61AC60EC603378012B2BD09D
:10144000022B0ED001F0DAFD20482C61047002F06E
:1014500045FE032829D03178022902D07468002C77
:1014600015D01B4B1B4ADD68156070780021307069
:10147000042403A800260470416001814181467064
:101480008670C67002F04AF8012006B070BD104B9D
:10149000104A9D681560E8E702F020FE0028DAD0C7
:1014A0000021002002F082F9D5E70021002200236C
:1014B00000200094019402F08FFBCCE7140500009B
:1014C00000F00140002B0020E42A0020182B00200F
:1014D0001C2B0020742A0020F0B5474680B4464BF0
:1014E0008021C8001A5884B0012A1CD0434C002621
:1014F0001B59002B17D0424C606900281ED002F007
:10150000EDFD012802D03F4802F042FF3E4DEB685E
:10151000197D002930D101F071FD002E15D104B0E4
:1015200004BC9046F0BD394A354C5668606937783E
:1015300020250026BD4276410028E0D103F0C2FB01
:101540000028DCD101256561D9E70120012102F0E5
:101550002DF9042814D903F03DF82D4A2061536970
:1015600063602478022C0FD0002B0DD197682F6078
:10157000002003F035F8D2E7264802F009FFCAE759
:10158000254E8200B758BF46D2682A60F0E723484C
:1015900002F0FEFEDFE702F063FA061CE089A7898D
:1015A000804602F057FAEB680022997D01AB1F815B
:1015B0004746029658701A705F819970DA70181C4D
:1015C00001F0ACFFC7E702F04BFA061CE089A789DF
:1015D000804602F03FFAEB6800219A7D01AB19705A
:1015E0009A7041460122029658701F815981DA7023
:1015F000181C01F093FFAEE7001000403405000016
:10160000E42A002057060900742A0020002B00203D
:101610001C2B002058060900C0140300770609009F
:1016200038B51C4800248481C48102F013FA1A4C96
:101630001A4A0125A05002F00DFAA621CB008540E0
:10164000E55002F00DFA164D286002F00FFA6860BE
:101650001448E86002F09CFFA121CB00E05002F0AA
:101660003DFD012807D002F039FD022802D00E48C6
:1016700002F08EFE002001F0D3FB03F0BBFB0B4C0D
:101680000B4BE268A225E90058500A4D51685951A8
:1016900038BDC046E42A0020001000402C050000A0
:1016A000002B0020D9140200DE050900742A002056
:1016B00000F00140140500007047C046F8B55F46D1
:1016C00056464D464446F0B4061C012585F3108865
:1016D000C54A002303210027012511709370536030
:1016E00093609381D3811361536155701776577658
:1016F000BE4CBF4AA1201351C4001151BD48BE4C7D
:101700000360A360636043608360C3600361077527
:1017100001F036FDE06003F06DFA301C01F0E4FEEC
:1017200001F080FF002002F0FBFD201C02F034FEDF
:10173000B24EC22081007258B14BC0271340735083
:10174000BA00B058AF49C5230140B1509A00B15812
:10175000FF27B94340200143B15085F31088A24DC3
:101760002B78012B00D115E16E7E01276F70002EC2
:1017700000D007E1FFF752FE2B78A34E9C460023D2
:1017800083F31088A14BA321CF00D859A049802210
:101790000140D0020143D9519E4A9F4FFF21316140
:1017A000A4209F509D4FC2009F509D4A9858884347
:1017B00098509F588020384398509858914F3840FF
:1017C0009850BA4680209F58C00107439F509F58A9
:1017D0008B4807409F5083469858C027814638045D
:1017E0004F463843985098580002070A9F5098581F
:1017F00080278146B8054F4638439850A522D2002D
:101800009F58381C884398509858A02101439950FC
:101810009F585046384098509F58C021C8013843BF
:10182000985099585846084098509858E0273904DD
:10183000014399509F583802010A995080279858BF
:1018400079050143962099500A27810002236246B8
:1018500077617160F360022A03D06F68002F00D1B6
:101860008DE00F22B260022323606E4F674C6E48FA
:1018700000227283E2512358FF27BB432350215893
:1018800002220A432250694B6948A721E050694867
:10189000CA00A223A050D900674A684B01206050BB
:1018A00013606749674B684A0B606849684B116071
:1018B0006849694A1960694B002113603076707677
:1018C0003177002002F01EFD69233360474B6448E6
:1018D000E6580F223040E050E658062196430E436A
:1018E000E650E0585F4EC022910206400E43A3200E
:1018F000E650C00022585C4B8021134023502658EC
:101900004A043243225023583E4EBB4320273B43D8
:10191000235021580E4026506C78012C02D0534899
:1019200002F036FD01242C7000260024AC706C609F
:10193000AC60AC81EC812C616C612E766E7603F02C
:1019400055FA344D2A4B4A495851A3224948D700E9
:101950000326D951C0251E508022284E80216800C0
:10196000D70002234D0337503350355084F310888D
:101970001D483CBC90469946A246AB46F8BD0F2395
:10198000B36071E703F098F9012807D029781E4E5B
:101990008C46F4E60126B4461B4EF0E602F0E2FC6B
:1019A00000281DD134486421002203F091F9164E1D
:1019B000307F00280FD131490127802380220F601A
:1019C0005200D90588500F60C046C046C046C04688
:1019D00088580028FCD003F047F92F78BC46CEE6A3
:1019E000274802F0D5FCDDE7E42A002014050000BA
:1019F00000F00140002B0020742A002000E100E0EC
:101A0000FFFF00FFFF00FFFF1C2B00200010004025
:101A1000FFFFF8FF1C050000B050E02070D010A0C0
:101A2000240500000C050000340500003C05000002
:101A3000FFFF000021100100241700400050007833
:101A4000281700404E0000542C17004002800C6004
:101A5000301700401164660034170040DEC08F82EA
:101A6000FFFEFFFFFFFFF0FFFFFFFFFDDA010900B0
:101A700004110040040500007143020014050040F9
:101A8000EC05090038B5264C637E002B13D1254D9B
:101A9000A86800283CD06968002911D002F056FCE3
:101AA000002809D1002002F043FC0122627603F0F5
:101AB00003F901280CD038BD1B4802F069FCF1E79E
:101AC0001A4802F065FC02F041FC0028EAD0F3E776
:101AD00002F048FC00281FD115486421002203F0C1
:101AE000F7F8144C237F002B0FD1134A01258020D7
:101AF00080211560C90542008B500D60C046C0466C
:101B0000C046C0468B58002BFCD003F0ADF8D2E79E
:101B10000A4802F03DFCBEE7094802F039FCDBE769
:101B2000E42A0020742A00200802090001020900AA
:101B3000714302001C2B0020140500400002090024
:101B4000EC05090008B5012383F310881A4B5A7E6F
:101B5000002A02D09878002803D0002080F3108853
:101B600008BD0121997003F0A7F80128F5D102F012
:101B7000F9FB00281BD100221048642103F0A8F8CB
:101B80000F4A137F002B0FD10E4A012010608021D5
:101B90008022C90552008B500860C046C046C0462E
:101BA000C0468B58002BFCD003F05EF8D5E7064802
:101BB00002F0EEFBDFE7C046E42A0020714302009A
:101BC0001C2B002014050040EC05090002480123ED
:101BD000407E58407047C046E42A002008B50123E3
:101BE00083F310881A4B1A78824205D05870587EB9
:101BF000002805D1FFF712FC002080F3108808BDF3
:101C000003F05AF80128F7D102F0ACFB00281BD1F1
:101C100064211048002203F05BF80F490B7F002B72
:101C20000FD10E4A0120106080218022C905520088
:101C30008B500860C046C046C046C0468B58002B3B
:101C4000FCD003F011F8D7E7054802F0A1FBDFE76D
:101C5000E42A0020714302001C2B002014050040E0
:101C6000EC050900014B18787047C046E42A0020B3
:101C700008B5012080F3108802F038FB002383F3BD
:101C8000108808BD08B5012181F3108802F032FBED
:101C9000002383F3108808BD08B5012383F310885F
:101CA00002F022FA00280BD01B4B9A78002A02D1AE
:101CB000587E002808D1002080F31088012008BD3C
:101CC00080F310880020FAE702F0F6FF0128F2D135
:101CD00002F048FB00281BD164211048002202F0CA
:101CE000F7FF0F490B7F002B0FD10E4A0120106028
:101CF00080218022C90552008B500860C046C04632
:101D0000C046C0468B58002BFCD002F0ADFFD2E796
:101D1000054802F03DFBDFE7E42A002071430200A2
:101D20001C2B002014050040EC05090008B501211A
:101D300081F3108802F0C8FA002383F3108808BDED
:101D400008B502F0BBFA08BD08B5012181F310887F
:101D500002F09CFA002383F3108808BD08B502F056
:101D6000A9FA08BD08B502F0BBFA08BD08B502F033
:101D7000C5FA08BD10B5041C012383F31088094B74
:101D80001A78002A02D0587E002806D1201C02F0C2
:101D900081FA002181F3108810BD034802F0F8FA9F
:101DA000F4E7C046E42A00209E02090008B501219C
:101DB00081F3108802F08EFA002383F3108808BDA7
:101DC000F0B5C2B20123551097101F401D40D61028
:101DD00079011E40AD01D41137010D435611111187
:101DE00019401E4025433D43CC00B7009111060A1F
:101DF000F6B2194025433D434C007710B1101F4007
:101E0000194025431A40BC014901F710AC461F4058
:101E1000D5012143F2113C01114332111A402143F3
:101E20007411D7001C40A2003943B7111F40114361
:101E3000020CD2B27C001E4021435710F4019610D0
:101E40001F401E407601BF013743D6113743D610DD
:101E50001E403601374316111E40F6003743561117
:101E60001E40B600374396111E401A407600374395
:101E7000D601624615433A1C324321432D06160211
:101E80000F042E433E43070E7910BD1019401D402C
:101E90008A01F8106D01FC11184015433911020137
:101EA000194025437811CC0018401543B911820020
:101EB0001940254315434C001F402543F8012B1CB6
:101EC0000343024A024933438B50F0BD1C05000016
:101ED0000010004070B5414B414AD2580123D6B2A0
:101EE0007510B0101D401840AC014001F510F11103
:101EF0001D40204308432C01311119402043741127
:101F0000CD001C40A1002843B5111D400843110A13
:101F1000C9B26C0020434D108C101D401C40640160
:101F2000AD012543CC112543CC101C402401254391
:101F30000C111C40E40025434C111C40A400254317
:101F40008C111E401C401940F601640025433043AB
:101F5000CC01160CF6B225432904B41075101D40AF
:101F60001C40000608436401A9010C43F110F5115F
:101F700019402C430D01311119402C43CD00711132
:101F800019402C438D00B11119401E402C434D00C7
:101F9000120EF1012C430C435510011C90101D40F2
:101FA000184026024001AC0131432043D611D51020
:101FB0001D40304316112C011E40F50020435411E2
:101FC0001C4028439511A6001D4030436C0013406F
:101FD0002043DB011843084370BDC0461C050000C8
:101FE00000100040F0B5C2B20123551097101F40F9
:101FF0001D40D61079011E40AD01D41137010D43AB
:102000005611111119401E4025433D43CC00B70025
:102010009111060AF6B2194025433D434C00771052
:10202000B1101F40194025431A40BC014901F71067
:10203000AC461F40D5012143F2113C01114332113E
:102040001A4021437411D7001C40A2003943B71134
:102050001F401143020CD2B27C001E402143571096
:10206000F40196101F401E407601BF013743D61180
:102070003743D6101E403601374316111E40F60076
:10208000374356111E40B600374396111E401A4082
:1020900076003743D601624615433A1C324321434A
:1020A0002D0616020F042E433E43070E7810BD1076
:1020B00018401D408201FC106D01F9111C401543B0
:1020C0003A1120011A400D437C11D1001C400543F8
:1020D000BA11A0001A400D43054351000D431F40A3
:1020E000FC012B1C2343A42002493343C2008B5024
:1020F000F0BDC0460010004070B5A426404AF30071
:10210000D2580123D6B27510B0101D401840AC0152
:102110004001F510F1111D40204308432C013111FD
:10212000194020437411CD001C40A1002843B51173
:102130001D400843110AC9B26C0020434D108C1099
:102140001D401C406401AD012543CC112543CC103A
:102150001C40240125430C111C40E40025434C1174
:102160001C40A40025438C111E401C401940F60160
:10217000640025433043CC01160CF6B225432904F4
:10218000B41075101D401C40000608436401A901ED
:102190000C43F110F51119402C430D013111194078
:1021A0002C43CD00711119402C438D00B111194001
:1021B0001E402C434D00120EF1012C430C435510D0
:1021C000011C90101D40184026024001AC01314313
:1021D0002043D611D5101D40304316112C011E404E
:1021E000F500204354111C4028439511A6001D40C2
:1021F00030436C0013402043DB011843084370BD9B
:1022000000100040F0B503220240D200FF239340AB
:10221000DB43184C032829D8174825584E102B406B
:10222000235001231F1C0F401E40B601FF013743FE
:102230008E101E4076013743CE101E4036013743C4
:102240000E111E40F60037434E111E40B6003743B4
:102250008E1133405E003B1C33431F1CCE113743AD
:1022600025589740391C29432150F0BDA520C000B6
:10227000D3E7C046001000402405000000B503224B
:102280000240D200FF239340032824D81449154864
:1022900041580B40D340DBB20122101C59101840AA
:1022A00011408901C00108439910114049010843B8
:1022B000D91011400901084319111140C900084300
:1022C000591111408900084399110A4052001043E6
:1022D000DB11184300BDA5210248C9004158D8E7C9
:1022E000240500000010004038B5051C0C1E08D065
:1022F000002D0BD0074B00209D605C6002F05AF966
:1023000038BD054802F044F8002DF3D1034802F02F
:102310003FF8EFE7742A0020EE020900EF020900FF
:10232000014B58617047C0461C2B0020014B586977
:102330007047C0461C2B002010B5054AA323DB00C4
:10234000D4580104034820400843D05010BDC04673
:1023500000100040FFFFF8FFA320034AC300D1583C
:102360004803400F7047C04600100040014B186101
:102370007047C0461C2B0020014B18697047C046AF
:102380001C2B0020014B58607047C0461C2B0020BE
:10239000014B58687047C0461C2B002000B5084A06
:1023A000084BD0601978022906D05B68002B03D156
:1023B00090680549086000BD034A1060FBE7C0460D
:1023C0001C2B0020E42A0020742A0020014BD8682E
:1023D0007047C0461C2B002000B5084A084B90608F
:1023E0001978022905D05B68002B02D105490860E5
:1023F00000BDD26803480260FAE7C0461C2B0020EB
:10240000E42A0020742A0020014B98687047C046D7
:102410001C2B0020014B58837047C0461C2B00200A
:10242000014B588B7047C0461C2B0020014B024AC1
:10243000D05070470C05000000100040024B034ACA
:10244000D058C0B27047C0460C05000000100040D4
:1024500010B51A4B1A4AFF219C588C439C500128F6
:1024600017D0002802D19958995010BD02281AD0CF
:10247000032803D0134801F08BFFF6E79958124C5C
:10248000084398501148A7211C50CA0000209850BA
:10249000EBE79C58204398500C48A72419500C484F
:1024A000E2009850E1E79C5808492043094C9850B5
:1024B0005C50A7200849C2009950D6E700100040A0
:1024C0003405000064030900FFFFFF003C05000025
:1024D00007010000FFFF000021100100024B034A2A
:1024E000D058C0B27047C04634050000001000400C
:1024F00000B5012818D0002813D1A2231C49DA0006
:1025000088501C4B1C4A1D481A601D491D4A1E4B11
:1025100008601A601D4A1E4B1E481F491A60086059
:1025200001E0022814D000BDA221114ACB00D050F6
:1025300010491148114A0860114B184812491A6095
:102540000860174A124B174813491A600860EAE7F7
:10255000A2220749D300C850064A0748074910601D
:10256000074B094A104819601060104AD3E7C0466B
:102570000010004024170040005000784E00005426
:102580002817004003800C602C1700402264720062
:10259000301700403E420F823417004002800C602A
:1025A00011646600DEC08F8208800C60886472004F
:1025B000A221024ACB00D058C0B2704700100040A0
:1025C00010B5041C0548C368002B02D004490C75E3
:1025D00010BD044801F0DCFEF8E7C046742A002074
:1025E000002B002097030900014B18767047C04666
:1025F0001C2B0020014B187E7047C0461C2B00206E
:10260000014B58767047C0461C2B0020014B587E6A
:102610007047C0461C2B0020014B18777047C046FE
:102620001C2B0020014B187F7047C0461C2B00203C
:1026300008B501F067FE08BD38B51349C868437D89
:10264000002B19D1114C124D124A1348002151513F
:1026500028C80020ED1A01F06BFE61698D4203D895
:102660000E4801F095FE6169691A0D48012202F0D9
:102670002FFB0023636138BD012000F059FC034C9F
:10268000A2890132A281DEE7742A0020E42A002018
:102690001405000000F001401C2B00200906090071
:1026A0007143020038B500F0A9FC1F4C00252561DC
:1026B0001E491F4D01222A700969A6201D4AC30028
:1026C000D15001F00BFD002822D100F05DFF012860
:1026D00004D901F0D1F96060002821D0022000F077
:1026E0009FFB002000F024FC01F0F8FC032802D03E
:1026F000114801F04DFE2B78012B02D00F4801F05C
:1027000047FE0F48022200212A702161E06038BD97
:1027100001F0E4FC0328E1D00A4801F039FEDDE7CE
:10272000094801F035FED9E7002B00201C2B0020C2
:10273000182B002000100040300509003C0509005E
:1027400061270200280509002305090008B5034B8D
:1027500005221A70FFF7A6FF08BDC046182B0020FF
:1027600070B5544C86B060684378DA074ED50023C4
:1027700023608026504BF100504D5A58032028709A
:10278000012A03D04E495A58002A2BD163681E787B
:10279000202E27D848498123DE008E59494A05A8B2
:1027A0008A5801230090311C0120019401F014FA91
:1027B000012836D0002830D002284FD0032802D07C
:1027C000414801F0E5FD3C4B8121C8001E583F4ABD
:1027D0009E502368002B5CD03D4E266104242C7053
:1027E00006B070BD8120344AC300D35800260020B3
:1027F0000021002200230096019601F0EDF9667594
:102800000428E0D0334801F0C3FDDCE701F080FD8F
:102810000028ACD000F0F2FBA9E72F4801F0B8FD8A
:10282000D1E70598002802D02C4801F0B1FD301CFA
:1028300001F056FD002835D029490223C86800213F
:10284000827D02A8827003704160018141814670DF
:10285000C17000F063FE01226275B4E7059A002A98
:1028600024D0301C01F03CFD002817D01C49022365
:10287000C868059A817D02A803704670002301266E
:102880004260038143818170C67000F047FE667527
:1028900099E723616375FFF705FFA1E7114801F090
:1028A00077FDE3E7104801F073FDC5E70F4801F03D
:1028B0006FFDD6E7002B002000100040182B0020F1
:1028C000340500000C040000810509002C050000FF
:1028D0004D2702008A050900750509006F050900EA
:1028E000742A00207905090070050900780509009F
:1028F000F0B54F464646C0B4B54C85B06369002B71
:1029000031D06368002B01D0013B63602278B14D68
:10291000022A5CD0002B5AD1AF68AF4E3760A17845
:10292000002900D0ADE0022A00D0B9E0AB4F3A78E0
:10293000033A012A00D843E101F040FDA84AA12151
:10294000C8008146131C4B441E68904601F020FECF
:10295000864200D12FE101F01BFE47464F4438600C
:10296000FFF7A0FE9EE002F0ADF90028C9D1237860
:10297000012B4FD0022B37D001F020FD62680023DD
:10298000002A01D0531E63602078934E8046914FF9
:10299000022801D0002B3AD0FB683360A278002ACD
:1029A00019D16178414506D0FEF738FD002800D0E6
:1029B00087E02578A8464246012A00D1B3E0002AE4
:1029C0003BD0022A29D0874801F0E2FC44E0EE68BF
:1029D00081480660A3E7617E002900D07DE005B054
:1029E0000CBC90469946F0BD7C4E01223578033DE3
:1029F000E9B28A424041C0B20028BDD0754B596847
:102A0000490861617848012202F062F9E7E7B86895
:102A10003060C3E700F0E8FAEEE7714EA121C8008C
:102A20003558804601F0B4FD854200D1CAE001F07E
:102A3000AFFD4346F050FFF735FE00207D6801F002
:102A400077FC61698D4200D8B0E0691A66480122BE
:102A5000002502F03DF965617D7E012DBFD126780C
:102A6000022EBCD060680028B9D1012E00D1F7E059
:102A7000002E00D1E1E0022EB1D05C4801F088FCCC
:102A8000ADE701F09BFC637E002BA8D002F014F9A7
:102A9000012834D002F0F4F8287F00282AD125E05C
:102AA00001F08CFC00206D6801F042FC61698D42F0
:102AB0000ED9691A4C480122002502F009F9656116
:102AC0008DE700207D6801F033FC61698D42F0D80C
:102AD000474801F05DFC6169EBE702F0EDF8012881
:102AE0000DD002F0CDF83F7F002F03D180270121C8
:102AF000FA0551600020002601F01AFC666000F023
:102B00007DFA0023A370637601A8002405210170DB
:102B100043600381438144708470C47000F0FEFC04
:102B20002E4D2C705BE700F069FA01F0D7FA00280F
:102B300066D07B8B002B03D0A189994200D3ABE0F8
:102B400002F0C0F8002800D0A2E0A1222448D3005F
:102B5000C55801F01DFD854202D0E1890131E181B6
:102B600001F016FD1E4DA122D300E85001F0B6FA87
:102B7000012807D001F0B2FA022802D01D4801F066
:102B800007FC002000F04CF902F034F91A49F5680E
:102B9000A222D300C8506E6818480E5001203D682C
:102BA00001F0C6FB61698D4200D94EE7104801F083
:102BB000EFFB616949E73E78002E00D1D0E671E76E
:102BC00069681DE7054A1678002E00D133E734E71F
:102BD000E42A00201C2B0020742A0020182B00203F
:102BE00000100040FC0309007143020016040900B4
:102BF00009060900DE05090000F001401405000087
:102C000000F0C2FC0128C9D92678022E02D06068E3
:102C100000285BD001F0F4FC0028BFD13B7E002BE4
:102C200004D101F0D7FC22699042B7D100F05AFDDF
:102C30000028B3D0FEF7F4FCB0E702F03DF801281D
:102C400000D1CCE602F01CF83E7F002E02D180209D
:102C5000C20555600020002501F06AFB6560BEE6F4
:102C600001F03CFA002800D0B9E600F035FD00285C
:102C700000D0B4E602F020F8012800D1AFE601F060
:102C8000FFFF3F7F002FE5D18023D9054E60E1E7AC
:102C9000144801F07DFB58E70121002000F086FD7B
:102CA00000F0DEFEE5898146A68900F0D3FE01AB87
:102CB00041465D8100254A46587019701E819D70FD
:102CC000DD70181C029200F029FC67E7206901F012
:102CD00071FC002001F084FC00F004FD002800D10C
:102CE0005CE7A7E7B304090010B5074C2378012B74
:102CF00002D0064801F04CFB0548064A0223002199
:102D000023700161C26010BD182B00203C05090032
:102D1000002B00206127020038B5374980228B69DB
:102D2000950001338B61354B032404200870C022C9
:102D30005C51334C02255200A550862500226C00C0
:102D400080251A516C0088251A516C0082251A5171
:102D50006C00C1251A51AA0008249C50294C2568F2
:102D60002A7D002A18D0A925EA009D58A023264ACA
:102D70008D75DD005159084239D0204B8E20450019
:102D800000220121A1205A519961C1001E48042549
:102D90004550A921C8001A50802518496B00CA580F
:102DA000002A20D18621154A4B00D058002816D180
:102DB0008022134B50001D58AA0702D5134801F07A
:102DC000E7FA2368DA68002A01D0904723685C7D1F
:102DD000002C03D019680E48084D295038BD0D4805
:102DE00001F0D6FAE4E70C4801F0D2FADAE70B4832
:102DF00001F0CEFAC1E7C0463C2B00200010004095
:102E000000E100E0842A002000F00140B7020A003F
:102E100004050000B6020A00B5020A00AC020A006E
:102E2000F0B557464E464546E0B4354C354E237D09
:102E3000051C00013618002B59D1022D41D932480A
:102E400001F0A6FA314801F0A3FAC2203049012767
:102E5000002283007F42C0206275CF5043002D487E
:102E60000227C7502C4F65703B6818688446A060E5
:102E700058682261A26132688246E0606260022D79
:102E800013D8327A80209046820040468850F27AE9
:102E9000002A1AD1214A60468850895800292AD030
:102EA000767AC1221A4F91007E501B7D002B01D0F3
:102EB000022D15D0012161751CBC90469946A24691
:102EC000F0BD21780029C0D0BCE7144A5046885094
:102ED00089580029E4D1124801F05AFA3B68DFE72B
:102EE0000E4E104800270425A7758551E2E70E48CD
:102EF00001F04EFAA1E70D4801F04AFA3B68CFE72E
:102F00003C2B0020D4140300F8020A00DD000A0064
:102F10000010004000E100E0842A002004050000C9
:102F200005010A0000F00140DB000A0000010A0070
:102F300070B5224C061C637D6578002B36D0207D51
:102F400000282FD10123002223756275022D25D878
:102F50001B4928010A18002E0AD06B1E012B0CD920
:102F600018490868047D002C01D0022D08D070BDDE
:102F7000166833606B1E012BF2D8927A2270EFE74D
:102F8000114E124B9D596A0714D50F4C1048025927
:102F9000002AECD10F4801F0FBF9E8E70E4801F0F8
:102FA000F7F9DDE70D4801F0F3F9CBE70C4801F044
:102FB000EFF9C4E70B4801F0EBF9E6E73C2B002002
:102FC000D4140300842A00200405000000F001400E
:102FD0000010004041010A003A010A0022010A00E3
:102FE00021010A0040010A008220034A4300D05810
:102FF00001384342584170470010004070B55D4AA7
:1030000002218023D15001245B4BC22066428500FF
:10301000C0245E516000802688241150B500002035
:10302000610058510122585054491A610B78012B04
:1030300045D0023BC046C046C046C046C046C0461A
:10304000C046C046C046C046C046C046C046C04650
:10305000C046012B23D9484A882380265D00B4004E
:1030600000230120C22653510B7013514442B0007B
:103070001450C0263F4802247600845186267600EC
:10308000935103264E708026760093518226535129
:10309000750053514B600B754B75046070BDC04695
:1030A000C046C046C046C046C046C046C046C046F0
:1030B000C046C046C046C046C046C046CBE7C04634
:1030C000C046C046C046C046C046C046C046C046D0
:1030D000C046C046C046C046C046C046C046C046C0
:1030E000C046C046C046C046C046C046C046C046B0
:1030F000C046C046C046C046C046C046C046C046A0
:10310000C046C046C046C046C046C046C046C0468F
:10311000C046C046C046C046C046C046C046C0467F
:10312000C046C046C046C046C046C046C046C0466F
:10313000C046C046C046C046C046C046C046C0465F
:10314000C046C046C046C046C046C046C046C0464F
:10315000C046C046C046C046C046C046C046C0463F
:10316000C046C046C046C046C046C046C046C0462F
:10317000C04670E700E100E0001000403C2B00205A
:1031800038B50E4C022520600D4C8023E5500D49CA
:103190000D4B0E48A42219500D49D0001950FFF7CD
:1031A0002DFF0C480023032203704270436003612B
:1031B000037543758375256038BDC046842A002099
:1031C00000E100E01410004000F001402405000080
:1031D000041100403C2B0020F0B5474680B4AB4CB6
:1031E0002069637D013065782061002B4ED12678FF
:1031F000032E51D0032D00D188E0012D00D189E0AC
:10320000022D00D1AFE06078A14D0601AB191F7B04
:103210000025002F05D086279E497A008D586A1E0A
:1032200095419E7A80229B4B002190002670195078
:10323000032E61D00120C2264742B2009F50C02019
:10324000954F022642008620BE5046009951032326
:103250006370904A80260023770088218226D3510C
:10326000480077001350D351636023758B4C21685D
:103270000B69002B00D09847002D04D023689B6871
:10328000002B00D0984704BC9046F0BD844801F064
:103290007FF82678032EADD17E4F86235A00B95889
:1032A00090460029A6D0012D00D1ACE0022D00D01F
:1032B000A5E02369012B7DD07A4801F069F82369E4
:1032C000012B77D0022B00D095E088200023450009
:1032D0004146802282207B507B5151004500802254
:1032E0007B5001207B519100C2257B50AA004142B6
:1032F0002370B950667054E00927C221C126784274
:103300008A00B70008219850D951A2E7664801F019
:103310003FF8B8E72369012B4FD0022BB3D15D4EA4
:103320008622002357008821F351480080258027FA
:1033300033506A00B9000220C225B350474273508F
:10334000AA00C121B75008250322880035502270F9
:1033500063602375514C23681A69002A00D18EE7F7
:10336000904723688BE72369012B23D0022B42D19E
:10337000484F8622882000235100450080267B503C
:1033800072007B5182218025BB504800AE00012293
:10339000C2213B505542BB518800032623703D504B
:1033A0006670636023753D4B1C682369002B00D059
:1033B00068E768E7FFF7B0FC65E73648802200263B
:1033C0005300C6508227C223790001229F00334B4D
:1033D00046505642C121C6518A001F6885503E7D25
:1033E000002E03D03149324804254550E4682F4F60
:1033F000284EF45147E72F4800F0CAFF43E72E4814
:1034000000F0C6FF3FE72569032D02D02B4800F0EE
:10341000BFFFA26980270132A2611E4A0023022158
:10342000BE000125C22021706F429351C025860045
:10343000194897516F008626C1517500882753514E
:103440007E0080218225154F48006900135093515A
:103450000320535039686070636023750E7D002E21
:103460000ED0A920C00017588E267500A77553519D
:103470000124A1270E4D94610426FC002E51135007
:10348000CB68002B00D0FDE6FDE6C0463C2B0020BB
:10349000D41403000010004000E100E0842A002062
:1034A0008E010A00A2010A00D4010A0004050000EE
:1034B00000F00140E6020A00A7010A009D010A008F
:1034C00008B5022804D9054800F062FF002008BDB5
:1034D000034B187843425841F9E7C046F8020A0006
:1034E0003C2B00207047C04610B5041E0CD0084A83
:1034F000802314600024D4678421D4508020054B9D
:10350000545042031A6010BD034800F041FFEEE73B
:10351000602B002000E100E029000B0070B5164C84
:10352000051C2368002B22D08421605809281AD852
:10353000E66F7300991988002218043243CD43C204
:103540008423E6580136E650E56F0135E567E26F02
:10355000092A01D90025E56780268021074A7403DE
:103560004800145070BD064800F012FFE0E705481F
:1035700000F00EFFD8E7C046602B002000E100E01D
:1035800035000B0034000B00034A842013580A2135
:10359000C81AC0B27047C046602B0020F0B557462D
:1035A0004E464546E0B484B0012383F310881C4B9B
:1035B00084201A58002A29D08426002101AC8025B5
:1035C000B14688465A59261C510088188700DA19D6
:1035D000043283CA83C649465858013858505A594C
:1035E00001325A515F59092F01D946465E5188F37D
:1035F00010881E6820686168A268B047012383F3C1
:103600001088074B48461F58002FDBD1002484F355
:10361000108804B01CBC90469946A246F0BDC04636
:10362000602B002008B500F0F1FF264A002380201F
:1036300013548120135489201354822013548A2058
:103640001354832013548B201354842013548C2040
:10365000135488218520135453548D201A49135430
:1036600086200B704B708B70CB700B714B7193611C
:103670009363D361D363136213645362536493629D
:103680009364D362D3641363136513548E2013546D
:10369000872013548F20135490208B71CB711354B7
:1036A00091215820535453635365137053609360B2
:1036B000D3601361536101211354D3679223D15412
:1036C00008BDC046E82B00207C2C0020014B185C74
:1036D0007047C0467C2C0020014A9023D05C704784
:1036E000E82B002010B52D4C2378002B3DD19021E4
:1036F000605C00281CD122780020002A17D0A06826
:1037000000283AD02169616006318A00A118CB787F
:1037100003220133DBB2CB7013405A0043780621F9
:103720008B431343437000209023E054012010BDCD
:103730002069606001F066F9A060002822D043781B
:103740000122134003D19222A15C002911D16068AB
:10375000083001F073F90228CDD8E36F002B16D0A2
:10376000E36001232370A068CAE70D4800F010FE53
:10377000BDE70221E3602170C2E70A4800F008FEBD
:10378000A068BFE7084800F003FEA068D7E700F094
:10379000A5FFE067E0600028ADD0E2E7E82B00205D
:1037A00001010C0025010C0007010C00F8B5A14C2B
:1037B000061C23780F1C013B012B02D99E4800F008
:1037C000E7FD0425002E00D0A5E0002F00D08EE0FC
:1037D000002222709026A05D002877D1606901F058
:1037E0002DF9002800D073E06069A35D01306061AD
:1037F000082800D177E0002B68D101F01FF90028DC
:1038000000D0A4E0606990260130A35D60610828C3
:1038100000D1A8E0002B59D101F010F9002800D008
:10382000A5E0606990230130E35C6061082800D165
:10383000A9E0002B4AD101F001F9002800D0A6E050
:10384000606990210130635C6061082800D1AAE0C2
:10385000002B3BD101F0F2F8002800D0A7E060690E
:1038600090270130E35D6061082800D1ABE0002BB8
:103870002CD101F0E3F8002800D0A8E06069902284
:103880000130A35C6061082800D1ACE0002B1DD1A1
:1038900001F0D4F8002800D0A9E06069902301303D
:1038A000E35C6061082800D1ADE0002B0ED101F08F
:1038B000C5F8002804D0606901229023E2542061F9
:1038C000676901376761082F00D1A0E0281CF8BDA7
:1038D0006069676901230130A35527610123606195
:1038E000082800D087E700216161002083E766682F
:1038F000301C01F05DF8002805D0A1194F4F0023BE
:1039000080310B70BB55A668864200D160E74C48F9
:1039100000F03EFD5CE72078012802D0494800F025
:1039200037FDE368002B7AD019780025002900D1F3
:103930004BE7E06F6568002876D0291C083100F05D
:10394000B1FF002866D00022E26702253DE76069EA
:1039500001222061606990270130E25501236061F6
:10396000082800D056E700216161002052E70120BD
:103970009022A0546069666901302661012360616C
:10398000082800D055E700276761002051E7902004
:103990000126265460696369013023616061012357
:1039A000082800D054E700226261002050E76069D7
:1039B0006169902301260130E65421610123606191
:1039C000082800D053E70020606100204FE76069BD
:1039D0006769012190260130A155276101236061AB
:1039E000082800D052E70020606100204EE760699F
:1039F00062690127902101306754226101236061CF
:103A0000082800D051E70026666100204DE700211C
:103A100061615BE70C4800F0BBFC0225D5E60B4872
:103A200000F0B6FCE3687FE7094800F0B1FCE06F06
:103A300083E7C046E82B00203D010C007C2C0020D1
:103A40005F010C0043010C004F010C0044010C000D
:103A5000B0020C00014B58687047C046E82B0020AC
:103A6000014B98687047C046E82B0020014BD8688E
:103A70007047C046E82B0020F8B54F464646C0B414
:103A8000534C2378002B00D093E0E06F002800D146
:103A900093E0427801230625861C5F4203211543EB
:103AA0007642B8460770457089460E4000D18AE0DC
:103AB000731E9C4665464B460022FF211F272B4064
:103AC00012D081700122012B0ED0022B02D042466F
:103AD000C270022283189970013205E0C518A970DE
:103AE000E97085186971043283189970BD1A531CE6
:103AF000AC469E42F2D82025AF1BB946BF08BA009B
:103B0000904628D0B21C012671427D1E03262E400D
:103B10008218012502C2BD4216D2002E0BD0012E02
:103B200005D0022E01D002C2022502C201350135A4
:103B300002C2BD4208D2161C02C604355160716033
:103B4000D1601032BD42F6D367464246B91A4344AB
:103B50008C46C14527D06646F618D943C518FF22C2
:103B60008919032701333940AA70B3421BD00029B9
:103B70000ED0012907D0022902D0C1188A70013362
:103B8000C518AA700133C7180133BA70B3420AD0FE
:103B90005D1C4119C718C5180433BA708A70CA7001
:103BA0006A71B342F4D1032323700CBC904699464A
:103BB000F8BD084800F0ECFB67E700F08FFDE06718
:103BC0000028F2D065E720218C46002393E7C04609
:103BD000E82B00207C010C00F0B55F4656464D46B0
:103BE0004446F0B4C44C83B088469B460D99E36FBD
:103BF000071C92468946002B00D179E120780328E2
:103C000002D0BE4800F0C4FBE06F01264378DA071B
:103C100004D49225665D01225640F6B20425002F99
:103C200000D098E0002600F0C3FDE6670020207079
:103C30009026A15D002977D1606900F0FFFE002881
:103C400000D079E06069A35D01306061082800D18F
:103C50007DE0002B68D100F0F1FE002800D0CBE021
:103C6000606990260130A35D6061082800D1CFE033
:103C7000002B59D100F0E2FE002800D0CCE06069B2
:103C800090270130E35D6061082800D1D0E0002B6F
:103C90004AD100F0D3FE002800D0CDE06069902327
:103CA0000130E35C6061082800D1D1E0002B3BD1FA
:103CB00000F0C4FE002800D0CEE060699022013000
:103CC000A35C6061082800D1D2E0002B2CD100F069
:103CD000B5FE002800D0CFE09020235C6069013061
:103CE0006061082800D1D3E0002B1DD100F0A6FEB2
:103CF000002800D0D0E0606990210130635C6061F1
:103D0000082800D1D4E0002B0ED100F097FE002847
:103D100004D063690121902021542361626901323A
:103D20006261082A00D1D4E0281C03B03CBC904654
:103D30009946A246AB46F0BD606963690122013035
:103D40002361A25501236061082800D081E7002784
:103D5000676100207DE75807850F404652460E30C8
:103D60002B06170241468500083160593F0A0C9A1C
:103D70001F4301910023494613600B60874200D125
:103D80009AE0E06F002800D1C1E0019900F08AFDBF
:103D900000239A46002802D0E36701239A46002EAA
:103DA00000D01E1C51460325002900D187E0019D4B
:103DB0005B460635AA00A7500125002B7FD0504F47
:103DC0004146785C00287AD0404600F037FE002853
:103DD00000D1A7E0404600F0EBFD002800D19BE0B9
:103DE000414665180C9B803500222A70186000221D
:103DF00040463A54022562E001209023E054606975
:103E000061690130216101236061082800D02FE73A
:103E10000022626100202BE790200121215460697B
:103E200066690130266101236061082800D02EE711
:103E30000022626100202AE76069676901269021FB
:103E400001306654276101236061082800D02DE706
:103E500000206061002029E76069636901279026DE
:103E600001302361A75501236061082800D02CE7A9
:103E700000216161002028E76069626990230127C1
:103E80000130E754226101236061082800D02BE74C
:103E900000266661002027E76069012220616069D1
:103EA00090270130E25501236061082800D02AE7FD
:103EB00000266661002026E70027BA460325002E6B
:103EC0000AD14A4616605746002F00D0AEE6E06F92
:103ED000A8E60027676127E7404600F093FD4946C2
:103EE0000860002810D0064B012041465854EAE7EC
:103EF000044800F04DFA81E6E82B00209D010C00FB
:103F00007C2C00209C010C00084E0E60DBE708486A
:103F100000F03EFAE06F38E70C9B1860054800F0AF
:103F200037FA64E7044800F033FA53E7402C0020E6
:103F3000B0020C00D7010C00D2010C0038B5664C61
:103F40002378002B75D19025605D002871D16069C0
:103F500000F074FD002800D06CE06069635D013002
:103F60006061082800D170E0002B62D100F066FD8E
:103F7000002800D06DE09023E35C6069013060614F
:103F8000082800D18FE0002B53D100F057FD002806
:103F900066D19023E35C606901306061082800D13C
:103FA00085E0002B45D100F049FD00285FD190232A
:103FB000E35C606901306061082800D17BE0002B80
:103FC00037D100F03BFD002858D19023E35C6069B5
:103FD00001306061082800D171E0002B29D100F088
:103FE0002DFD002851D19023E35C606901306061B0
:103FF000082868D0002B1CD100F020FD00284BD1F0
:104000009023E35C60690130606108285FD0002B79
:104010000FD100F013FD002804D063690120902126
:1040200060542361626901326261082A01D100256E
:10403000656138BD606961690122013062552161A5
:1040400001236061082800D08EE70025656100200B
:104050008AE7606901219022A154206101238CE745
:10406000606901219022A1542061012393E76069D6
:1040700001219022A154206101239AE76069012166
:104080009022A15420610123A1E7606901219022BF
:10409000A15420610123A8E7606901219022A15465
:1040A00020610123AEE70025656100206BE7002554
:1040B0006561002075E70025656100207FE7002528
:1040C0006561002089E700256561002092E70025F1
:1040D000656100209BE7C046E82B0020014B187863
:1040E0007047C046E82B002070B5051C0E1C00F080
:1040F000B5FC0024002801D1201C70BD301C291CF7
:1041000000F0D0FB0028F7D05F4D01242B78002B66
:10411000F2D19026A85D0028EED1686900F08EFCEF
:10412000002871D1AB5D686901306861082800D151
:104130008DE00124002BDFD100F080FC90230028CB
:1041400067D1EB5C686901306861082800D182E0C2
:104150000124002BD0D100F071FC902300285DD108
:10416000EB5C686901306861082878D00124002B75
:10417000C2D100F063FC9023002854D1EB5C686945
:104180000130686108286ED00124002BB4D100F002
:1041900055FC902300284BD1EB5C686901306861C5
:1041A000082864D00124002BA6D100F047FC9023FE
:1041B000002842D1EB5C68690130686108285AD058
:1041C0000124002B98D100F039FC9023002839D12C
:1041D000EB5C686901306861082850D00124002B2D
:1041E00000D089E700F02AFC002803D09026AC55C7
:1041F0006C692C616B69012401336B61082B00D061
:104200007AE70020686177E76969AC552961012385
:1042100089E7EC546C6901232C6193E7EC546B69DA
:104220002B6101239DE76969EC5429610123A6E70D
:10423000EC546C6901232C61AFE7EC546B692B6182
:104240000123B8E76969EC5429610123C1E7002221
:104250006A6100206DE700266E61002078E700208B
:104260006861002082E700226A6100208CE7002656
:104270006E61002096E7002068610020A0E7002220
:104280006A610020AAE7C046E82B002008B500F0CC
:10429000B9FB08BD08B5054A00231118044A80314E
:1042A0000B70135400F0E0FB08BDC046E82B002063
:1042B0007C2C002008B500F0C1FB08BD08B5083013
:1042C00000F0A0FB08BDC04608B5083000F070FB48
:1042D00008BDC04608B5083000F0C6FB08BDC046A2
:1042E00008B5083000F0AAFB08BDC04608B500F0CC
:1042F000F5F908BD08B500F05BFA08BD08B500F097
:10430000ADFB08BD014A9223D0547047E82B002032
:10431000014A9223D05C7047E82B00207047C046CA
:10432000024B9870587018707047C046842C00205B
:1043300010B5041C012802D9024800F029F8024BEC
:104340005C7010BD2A000D00842C0020014B1878F1
:104350007047C046842C0020014B98787047C046B7
:10436000842C0020014B58787047C046842C0020D4
:1043700008B5054B18785978987004488A00197068
:104380001358984708BDC046842C0020E420002024
:1043900008B5FDF739F808BD10B5041E05D0054B6A
:1043A00000221C605A609A6010BD0348FFF7F0FFBE
:1043B000F5E7C046882A00202A00010000B5094B15
:1043C00019689A68086801329A60824208D35A686C
:1043D00049680020013298605A608A4200D35860D0
:1043E00000BDC046882A0020F0B5474680B40028AA
:1043F0001DD001281ED0184FBD683B6844191D68A8
:10440000BC60201C291C984600F046FD7E68861979
:104410007E60AC4203D3641BA542FCD9BC6040461D
:1044200043689E4203D3F61AB342FCD97E6004BCB3
:104430009046F0BD084B19689A68086801329A6086
:104440008242F4D35C6849680020013498605C6063
:104450008C42ECD35860EAE7882A002002490A68B7
:104460008B681068C01A7047882A002038B50E4D36
:10447000041C28684368A34211D96B680020A3423A
:1044800009D02A689C4207D91268A868DB431C1926
:10449000151A6243A81838BD51686418F4E7034838
:1044A000FFF776FFE9E7C046882A00206800010090
:1044B00070B5041C0D1C884214D20C4E3068036881
:1044C0009D420BD8B368E01A9C4206D800209D425A
:1044D00003D835682A68D11A081970BD0448FFF757
:1044E00057FFEFE70348FFF753FFE6E7882A00206E
:1044F0007E0001007D000100F8B5214C061C2068FB
:104500000F1C4368151C9A4226D263689D420FD047
:1045100022680AD91268A168DB435D19501A6A4300
:104520008018002804D08019F8BD51686D18F1E793
:10453000BE421ED223681A68974214D8A1688E42E0
:104540000ED88F4219D8511A88198842ECD35C686A
:10455000013C62438018E7E70A48FFF719FFD4E7F8
:10456000701A511AF1E70848FFF712FF23681A681A
:10457000E4E70648FFF70CFFDCE7511A0020E4E708
:10458000882A0020680001007E0001007D000100F3
:1045900010B5064C2268636851688B4203D3044807
:1045A000FFF7F6FE0CCC9268D05C10BD882A002084
:1045B000B200010038B5054C051C20684368AB42C9
:1045C00002D80348FFF7E4FE656038BD882A002062
:1045D000B9000100014B58687047C046882A002086
:1045E00038B5054C051C20680368AB4202D8034867
:1045F000FFF7CEFEA56038BD882A0020C500010067
:10460000014B98687047C046882A002070B52F4B30
:1046100000222021222623255A7021249A70252049
:104620001A701A715A71DA70DA711A729A719A7272
:10463000DA725A725A739A731A731A745A74DA7352
:10464000DA741A759A749A75DA755A755A769A7672
:104650001A761A775A77DA76DA775A549A772621C1
:104660009A555A55242628251A551A5429245A543D
:1046700027209A552B215A552C262A251A551A548B
:104680002E245A542F209A552D215A55104E114D33
:104690001A551A5400245A54DE21200103195A00D5
:1046A000B21804C5117051700223581CD154115412
:1046B000981C1154D81C04331154222BF5D1013409
:1046C000062CEAD1044D2C6070BDC046A42C0020FD
:1046D000942D00208C2C0020882C002070B52E4AB0
:1046E0000024106800283ED0411E2C4B2C4E8D001B
:1046F0005C5911605E51002937D01A6894422CD061
:10470000023803250022284013D0012291422CD9DF
:104710005E68B44221D001280BD0022803D09D68E6
:104720000222AC4219D00132D2B295005E59B44295
:1047300013D00132D2B2914217D9960098598442CF
:104740000BD00132D2B296009859844205D0013282
:10475000D2B290001D58AC42E5D11248FFF718FEC6
:104760001148FFF715FE201C70BD104B9C42FAD07B
:10477000191C22318C42F6D01A1C44329442F2D0D9
:104780001D1C6635AC42EED0181C88308442EAD03D
:10479000AA339C42E4D1E6E7882C00208C2C002030
:1047A000ADDEADDEF60003007D000300942D002099
:1047B00070B5344E041C3268052A5ED8324D002A8A
:1047C00044D02B689C422CD0511E03200023014072
:1047D00013D001239A4239D96868844221D0012933
:1047E0000BD0022903D0A96802238C4219D00133CF
:1047F000DBB299006858844213D00133DBB29A428D
:1048000024D9980029588C420BD00133DBB299008F
:104810006858844205D00133DBB29900685884425D
:10482000E5D11A48FFF7B4FD1948FFF7B1FD32682A
:104830009300E8581749884204D01748FFF7A8FDAD
:10484000326893000132EC50326070BD134B9C42D1
:10485000EED0191C22318C42EAD0181C443084421C
:10486000E6D0191C66318C42E2D0181C8830844294
:10487000DED0AA339C42D7D1DAE70948FFF788FD9A
:1048800032689BE7882C00208C2C0020F600030067
:1048900086000300ADDEADDE88000300942D00200D
:1048A00085000300F8B5041C0D1C0F2900D96BE02E
:1048B000374B1968002950D0364B1A6894422CD0D7
:1048C000481E03260022304013D001228A4244D2DF
:1048D0005E68B44221D001280BD0022803D098682A
:1048E0000222844219D00132D2B290001E58B44242
:1048F00013D00132D2B28A422FD29700D8598442C3
:104900000BD00132D2B296009F59BC4205D0013281
:10491000D2B29700D8598442E5D11F48FFF738FD3D
:104920001E48FFF735FD1E4B6E0071195F5C0020BD
:10493000022F11D85A185778C9191A4F8900CC512B
:104940005178013151705478022C00D9507075198A
:104950005A5D012001325A55F8BD134B9C42E2D0FA
:10496000191C22318C42DED01A1C44329442DAD017
:104970001E1C6636B442D6D0181C88308442D2D071
:10498000AA339C42CCD1CEE70848FFF701FD8FE760
:10499000882C00208C2C0020F600030090000300DF
:1049A000A42C0020D42C0020942D00208F00030084
:1049B00038B5041C0F281AD80F4A65002919535C12
:1049C0000020002B0FD053189878081881000B484E
:1049D00008589978013199709978022904D82C19CE
:1049E000155D013D155538BD00219970F7E7044864
:1049F000FFF7CEFCE0E7C046A42C0020D42C00201A
:104A0000A600030010B5041C0F280DD86000084B49
:104A10000419E25C0020002A05D018198278054BA1
:104A2000A1188C00E05810BD0348FFF7B1FCEDE77A
:104A3000A42C0020D42C0020B700030010B5041CC7
:104A40000F2802D90348FFF7A3FC6000024B0419AA
:104A5000E05C10BDC8000300A42C0020014B1868C6
:104A60007047C046882C0020F8B54F464646C0B473
:104A700080460F2800D99BE041464B00504F994695
:104A80004A464244BB5C002B6ED0BB189E789D7892
:104A9000911901359D704B4C9A7888000459022A6F
:104AA00001D900229A704B464344FD5C013DFD5400
:104AB000002C59D0444DAC4200D175E0434E3268D1
:104AC000052A6CD8424D002A52D0286884422CD046
